{
  "_format": "hh-sol-artifact-1",
  "contractName": "testContract",
  "sourceName": "contracts/testContract.sol",
  "abi": [
    {
      "inputs": [],
      "name": "getName",
      "outputs": [
        {
          "internalType": "string",
          "name": "",
          "type": "string"
        }
      ],
      "stateMutability": "pure",
      "type": "function"
    }
  ],
  "bytecode": "0x6080604052348015600f57600080fd5b5060f58061001e6000396000f3fe6080604052348015600f57600080fd5b506004361060285760003560e01c806317d7de7c14602d575b600080fd5b604080518082018252600881527f7879742d6b6f6b6f00000000000000000000000000000000000000000000000060208201529051606a91906073565b60405180910390f35b602081526000825180602084015260005b81811015609f57602081860181015160408684010152016084565b506000604082850101526040601f19601f8301168401019150509291505056fea26469706673582212205cde53ea012f1e5e1d30a74c9c2cf016742ec5bded996d431bae44860e73dc8564736f6c634300081b0033",
  "linkReferences": {},
  "deployedLinkReferences": {}
}