{
  "_format": "hh-sol-artifact-1",
  "contractName": "AccessManager",
  "sourceName": "contracts/access/manager/AccessManager.sol",
  "abi": [
    {
      "inputs": [
        {
          "internalType": "address",
          "name": "initialAdmin",
          "type": "address"
        }
      ],
      "stateMutability": "nonpayable",
      "type": "constructor"
    },
    {
      "inputs": [
        {
          "internalType": "bytes32",
          "name": "operationId",
          "type": "bytes32"
        }
      ],
      "name": "AccessManagerAlreadyScheduled",
      "type": "error"
    },
    {
      "inputs": [],
      "name": "AccessManagerBadConfirmation",
      "type": "error"
    },
    {
      "inputs": [
        {
          "internalType": "bytes32",
          "name": "operationId",
          "type": "bytes32"
        }
      ],
      "name": "AccessManagerExpired",
      "type": "error"
    },
    {
      "inputs": [
        {
          "internalType": "address",
          "name": "initialAdmin",
          "type": "address"
        }
      ],
      "name": "AccessManagerInvalidInitialAdmin",
      "type": "error"
    },
    {
      "inputs": [
        {
          "internalType": "uint64",
          "name": "roleId",
          "type": "uint64"
        }
      ],
      "name": "AccessManagerLockedRole",
      "type": "error"
    },
    {
      "inputs": [
        {
          "internalType": "bytes32",
          "name": "operationId",
          "type": "bytes32"
        }
      ],
      "name": "AccessManagerNotReady",
      "type": "error"
    },
    {
      "inputs": [
        {
          "internalType": "bytes32",
          "name": "operationId",
          "type": "bytes32"
        }
      ],
      "name": "AccessManagerNotScheduled",
      "type": "error"
    },
    {
      "inputs": [
        {
          "internalType": "address",
          "name": "msgsender",
          "type": "address"
        },
        {
          "internalType": "uint64",
          "name": "roleId",
          "type": "uint64"
        }
      ],
      "name": "AccessManagerUnauthorizedAccount",
      "type": "error"
    },
    {
      "inputs": [
        {
          "internalType": "address",
          "name": "caller",
          "type": "address"
        },
        {
          "internalType": "address",
          "name": "target",
          "type": "address"
        },
        {
          "internalType": "bytes4",
          "name": "selector",
          "type": "bytes4"
        }
      ],
      "name": "AccessManagerUnauthorizedCall",
      "type": "error"
    },
    {
      "inputs": [
        {
          "internalType": "address",
          "name": "msgsender",
          "type": "address"
        },
        {
          "internalType": "address",
          "name": "caller",
          "type": "address"
        },
        {
          "internalType": "address",
          "name": "target",
          "type": "address"
        },
        {
          "internalType": "bytes4",
          "name": "selector",
          "type": "bytes4"
        }
      ],
      "name": "AccessManagerUnauthorizedCancel",
      "type": "error"
    },
    {
      "inputs": [
        {
          "internalType": "address",
          "name": "target",
          "type": "address"
        }
      ],
      "name": "AccessManagerUnauthorizedConsume",
      "type": "error"
    },
    {
      "inputs": [
        {
          "internalType": "address",
          "name": "target",
          "type": "address"
        }
      ],
      "name": "AddressEmptyCode",
      "type": "error"
    },
    {
      "inputs": [],
      "name": "FailedCall",
      "type": "error"
    },
    {
      "inputs": [
        {
          "internalType": "uint256",
          "name": "balance",
          "type": "uint256"
        },
        {
          "internalType": "uint256",
          "name": "needed",
          "type": "uint256"
        }
      ],
      "name": "InsufficientBalance",
      "type": "error"
    },
    {
      "inputs": [
        {
          "internalType": "uint8",
          "name": "bits",
          "type": "uint8"
        },
        {
          "internalType": "uint256",
          "name": "value",
          "type": "uint256"
        }
      ],
      "name": "SafeCastOverflowedUintDowncast",
      "type": "error"
    },
    {
      "anonymous": false,
      "inputs": [
        {
          "indexed": true,
          "internalType": "bytes32",
          "name": "operationId",
          "type": "bytes32"
        },
        {
          "indexed": true,
          "internalType": "uint32",
          "name": "nonce",
          "type": "uint32"
        }
      ],
      "name": "OperationCanceled",
      "type": "event"
    },
    {
      "anonymous": false,
      "inputs": [
        {
          "indexed": true,
          "internalType": "bytes32",
          "name": "operationId",
          "type": "bytes32"
        },
        {
          "indexed": true,
          "internalType": "uint32",
          "name": "nonce",
          "type": "uint32"
        }
      ],
      "name": "OperationExecuted",
      "type": "event"
    },
    {
      "anonymous": false,
      "inputs": [
        {
          "indexed": true,
          "internalType": "bytes32",
          "name": "operationId",
          "type": "bytes32"
        },
        {
          "indexed": true,
          "internalType": "uint32",
          "name": "nonce",
          "type": "uint32"
        },
        {
          "indexed": false,
          "internalType": "uint48",
          "name": "schedule",
          "type": "uint48"
        },
        {
          "indexed": false,
          "internalType": "address",
          "name": "caller",
          "type": "address"
        },
        {
          "indexed": false,
          "internalType": "address",
          "name": "target",
          "type": "address"
        },
        {
          "indexed": false,
          "internalType": "bytes",
          "name": "data",
          "type": "bytes"
        }
      ],
      "name": "OperationScheduled",
      "type": "event"
    },
    {
      "anonymous": false,
      "inputs": [
        {
          "indexed": true,
          "internalType": "uint64",
          "name": "roleId",
          "type": "uint64"
        },
        {
          "indexed": true,
          "internalType": "uint64",
          "name": "admin",
          "type": "uint64"
        }
      ],
      "name": "RoleAdminChanged",
      "type": "event"
    },
    {
      "anonymous": false,
      "inputs": [
        {
          "indexed": true,
          "internalType": "uint64",
          "name": "roleId",
          "type": "uint64"
        },
        {
          "indexed": false,
          "internalType": "uint32",
          "name": "delay",
          "type": "uint32"
        },
        {
          "indexed": false,
          "internalType": "uint48",
          "name": "since",
          "type": "uint48"
        }
      ],
      "name": "RoleGrantDelayChanged",
      "type": "event"
    },
    {
      "anonymous": false,
      "inputs": [
        {
          "indexed": true,
          "internalType": "uint64",
          "name": "roleId",
          "type": "uint64"
        },
        {
          "indexed": true,
          "internalType": "address",
          "name": "account",
          "type": "address"
        },
        {
          "indexed": false,
          "internalType": "uint32",
          "name": "delay",
          "type": "uint32"
        },
        {
          "indexed": false,
          "internalType": "uint48",
          "name": "since",
          "type": "uint48"
        },
        {
          "indexed": false,
          "internalType": "bool",
          "name": "newMember",
          "type": "bool"
        }
      ],
      "name": "RoleGranted",
      "type": "event"
    },
    {
      "anonymous": false,
      "inputs": [
        {
          "indexed": true,
          "internalType": "uint64",
          "name": "roleId",
          "type": "uint64"
        },
        {
          "indexed": true,
          "internalType": "uint64",
          "name": "guardian",
          "type": "uint64"
        }
      ],
      "name": "RoleGuardianChanged",
      "type": "event"
    },
    {
      "anonymous": false,
      "inputs": [
        {
          "indexed": true,
          "internalType": "uint64",
          "name": "roleId",
          "type": "uint64"
        },
        {
          "indexed": false,
          "internalType": "string",
          "name": "label",
          "type": "string"
        }
      ],
      "name": "RoleLabel",
      "type": "event"
    },
    {
      "anonymous": false,
      "inputs": [
        {
          "indexed": true,
          "internalType": "uint64",
          "name": "roleId",
          "type": "uint64"
        },
        {
          "indexed": true,
          "internalType": "address",
          "name": "account",
          "type": "address"
        }
      ],
      "name": "RoleRevoked",
      "type": "event"
    },
    {
      "anonymous": false,
      "inputs": [
        {
          "indexed": true,
          "internalType": "address",
          "name": "target",
          "type": "address"
        },
        {
          "indexed": false,
          "internalType": "uint32",
          "name": "delay",
          "type": "uint32"
        },
        {
          "indexed": false,
          "internalType": "uint48",
          "name": "since",
          "type": "uint48"
        }
      ],
      "name": "TargetAdminDelayUpdated",
      "type": "event"
    },
    {
      "anonymous": false,
      "inputs": [
        {
          "indexed": true,
          "internalType": "address",
          "name": "target",
          "type": "address"
        },
        {
          "indexed": false,
          "internalType": "bool",
          "name": "closed",
          "type": "bool"
        }
      ],
      "name": "TargetClosed",
      "type": "event"
    },
    {
      "anonymous": false,
      "inputs": [
        {
          "indexed": true,
          "internalType": "address",
          "name": "target",
          "type": "address"
        },
        {
          "indexed": false,
          "internalType": "bytes4",
          "name": "selector",
          "type": "bytes4"
        },
        {
          "indexed": true,
          "internalType": "uint64",
          "name": "roleId",
          "type": "uint64"
        }
      ],
      "name": "TargetFunctionRoleUpdated",
      "type": "event"
    },
    {
      "inputs": [],
      "name": "ADMIN_ROLE",
      "outputs": [
        {
          "internalType": "uint64",
          "name": "",
          "type": "uint64"
        }
      ],
      "stateMutability": "view",
      "type": "function"
    },
    {
      "inputs": [],
      "name": "PUBLIC_ROLE",
      "outputs": [
        {
          "internalType": "uint64",
          "name": "",
          "type": "uint64"
        }
      ],
      "stateMutability": "view",
      "type": "function"
    },
    {
      "inputs": [
        {
          "internalType": "address",
          "name": "caller",
          "type": "address"
        },
        {
          "internalType": "address",
          "name": "target",
          "type": "address"
        },
        {
          "internalType": "bytes4",
          "name": "selector",
          "type": "bytes4"
        }
      ],
      "name": "canCall",
      "outputs": [
        {
          "internalType": "bool",
          "name": "immediate",
          "type": "bool"
        },
        {
          "internalType": "uint32",
          "name": "delay",
          "type": "uint32"
        }
      ],
      "stateMutability": "view",
      "type": "function"
    },
    {
      "inputs": [
        {
          "internalType": "address",
          "name": "caller",
          "type": "address"
        },
        {
          "internalType": "address",
          "name": "target",
          "type": "address"
        },
        {
          "internalType": "bytes",
          "name": "data",
          "type": "bytes"
        }
      ],
      "name": "cancel",
      "outputs": [
        {
          "internalType": "uint32",
          "name": "",
          "type": "uint32"
        }
      ],
      "stateMutability": "nonpayable",
      "type": "function"
    },
    {
      "inputs": [
        {
          "internalType": "address",
          "name": "caller",
          "type": "address"
        },
        {
          "internalType": "bytes",
          "name": "data",
          "type": "bytes"
        }
      ],
      "name": "consumeScheduledOp",
      "outputs": [],
      "stateMutability": "nonpayable",
      "type": "function"
    },
    {
      "inputs": [
        {
          "internalType": "address",
          "name": "target",
          "type": "address"
        },
        {
          "internalType": "bytes",
          "name": "data",
          "type": "bytes"
        }
      ],
      "name": "execute",
      "outputs": [
        {
          "internalType": "uint32",
          "name": "",
          "type": "uint32"
        }
      ],
      "stateMutability": "payable",
      "type": "function"
    },
    {
      "inputs": [],
      "name": "expiration",
      "outputs": [
        {
          "internalType": "uint32",
          "name": "",
          "type": "uint32"
        }
      ],
      "stateMutability": "view",
      "type": "function"
    },
    {
      "inputs": [
        {
          "internalType": "uint64",
          "name": "roleId",
          "type": "uint64"
        },
        {
          "internalType": "address",
          "name": "account",
          "type": "address"
        }
      ],
      "name": "getAccess",
      "outputs": [
        {
          "internalType": "uint48",
          "name": "since",
          "type": "uint48"
        },
        {
          "internalType": "uint32",
          "name": "currentDelay",
          "type": "uint32"
        },
        {
          "internalType": "uint32",
          "name": "pendingDelay",
          "type": "uint32"
        },
        {
          "internalType": "uint48",
          "name": "effect",
          "type": "uint48"
        }
      ],
      "stateMutability": "view",
      "type": "function"
    },
    {
      "inputs": [
        {
          "internalType": "bytes32",
          "name": "id",
          "type": "bytes32"
        }
      ],
      "name": "getNonce",
      "outputs": [
        {
          "internalType": "uint32",
          "name": "",
          "type": "uint32"
        }
      ],
      "stateMutability": "view",
      "type": "function"
    },
    {
      "inputs": [
        {
          "internalType": "uint64",
          "name": "roleId",
          "type": "uint64"
        }
      ],
      "name": "getRoleAdmin",
      "outputs": [
        {
          "internalType": "uint64",
          "name": "",
          "type": "uint64"
        }
      ],
      "stateMutability": "view",
      "type": "function"
    },
    {
      "inputs": [
        {
          "internalType": "uint64",
          "name": "roleId",
          "type": "uint64"
        }
      ],
      "name": "getRoleGrantDelay",
      "outputs": [
        {
          "internalType": "uint32",
          "name": "",
          "type": "uint32"
        }
      ],
      "stateMutability": "view",
      "type": "function"
    },
    {
      "inputs": [
        {
          "internalType": "uint64",
          "name": "roleId",
          "type": "uint64"
        }
      ],
      "name": "getRoleGuardian",
      "outputs": [
        {
          "internalType": "uint64",
          "name": "",
          "type": "uint64"
        }
      ],
      "stateMutability": "view",
      "type": "function"
    },
    {
      "inputs": [
        {
          "internalType": "bytes32",
          "name": "id",
          "type": "bytes32"
        }
      ],
      "name": "getSchedule",
      "outputs": [
        {
          "internalType": "uint48",
          "name": "",
          "type": "uint48"
        }
      ],
      "stateMutability": "view",
      "type": "function"
    },
    {
      "inputs": [
        {
          "internalType": "address",
          "name": "target",
          "type": "address"
        }
      ],
      "name": "getTargetAdminDelay",
      "outputs": [
        {
          "internalType": "uint32",
          "name": "",
          "type": "uint32"
        }
      ],
      "stateMutability": "view",
      "type": "function"
    },
    {
      "inputs": [
        {
          "internalType": "address",
          "name": "target",
          "type": "address"
        },
        {
          "internalType": "bytes4",
          "name": "selector",
          "type": "bytes4"
        }
      ],
      "name": "getTargetFunctionRole",
      "outputs": [
        {
          "internalType": "uint64",
          "name": "",
          "type": "uint64"
        }
      ],
      "stateMutability": "view",
      "type": "function"
    },
    {
      "inputs": [
        {
          "internalType": "uint64",
          "name": "roleId",
          "type": "uint64"
        },
        {
          "internalType": "address",
          "name": "account",
          "type": "address"
        },
        {
          "internalType": "uint32",
          "name": "executionDelay",
          "type": "uint32"
        }
      ],
      "name": "grantRole",
      "outputs": [],
      "stateMutability": "nonpayable",
      "type": "function"
    },
    {
      "inputs": [
        {
          "internalType": "uint64",
          "name": "roleId",
          "type": "uint64"
        },
        {
          "internalType": "address",
          "name": "account",
          "type": "address"
        }
      ],
      "name": "hasRole",
      "outputs": [
        {
          "internalType": "bool",
          "name": "isMember",
          "type": "bool"
        },
        {
          "internalType": "uint32",
          "name": "executionDelay",
          "type": "uint32"
        }
      ],
      "stateMutability": "view",
      "type": "function"
    },
    {
      "inputs": [
        {
          "internalType": "address",
          "name": "caller",
          "type": "address"
        },
        {
          "internalType": "address",
          "name": "target",
          "type": "address"
        },
        {
          "internalType": "bytes",
          "name": "data",
          "type": "bytes"
        }
      ],
      "name": "hashOperation",
      "outputs": [
        {
          "internalType": "bytes32",
          "name": "",
          "type": "bytes32"
        }
      ],
      "stateMutability": "view",
      "type": "function"
    },
    {
      "inputs": [
        {
          "internalType": "address",
          "name": "target",
          "type": "address"
        }
      ],
      "name": "isTargetClosed",
      "outputs": [
        {
          "internalType": "bool",
          "name": "",
          "type": "bool"
        }
      ],
      "stateMutability": "view",
      "type": "function"
    },
    {
      "inputs": [
        {
          "internalType": "uint64",
          "name": "roleId",
          "type": "uint64"
        },
        {
          "internalType": "string",
          "name": "label",
          "type": "string"
        }
      ],
      "name": "labelRole",
      "outputs": [],
      "stateMutability": "nonpayable",
      "type": "function"
    },
    {
      "inputs": [],
      "name": "minSetback",
      "outputs": [
        {
          "internalType": "uint32",
          "name": "",
          "type": "uint32"
        }
      ],
      "stateMutability": "view",
      "type": "function"
    },
    {
      "inputs": [
        {
          "internalType": "bytes[]",
          "name": "data",
          "type": "bytes[]"
        }
      ],
      "name": "multicall",
      "outputs": [
        {
          "internalType": "bytes[]",
          "name": "results",
          "type": "bytes[]"
        }
      ],
      "stateMutability": "nonpayable",
      "type": "function"
    },
    {
      "inputs": [
        {
          "internalType": "uint64",
          "name": "roleId",
          "type": "uint64"
        },
        {
          "internalType": "address",
          "name": "callerConfirmation",
          "type": "address"
        }
      ],
      "name": "renounceRole",
      "outputs": [],
      "stateMutability": "nonpayable",
      "type": "function"
    },
    {
      "inputs": [
        {
          "internalType": "uint64",
          "name": "roleId",
          "type": "uint64"
        },
        {
          "internalType": "address",
          "name": "account",
          "type": "address"
        }
      ],
      "name": "revokeRole",
      "outputs": [],
      "stateMutability": "nonpayable",
      "type": "function"
    },
    {
      "inputs": [
        {
          "internalType": "address",
          "name": "target",
          "type": "address"
        },
        {
          "internalType": "bytes",
          "name": "data",
          "type": "bytes"
        },
        {
          "internalType": "uint48",
          "name": "when",
          "type": "uint48"
        }
      ],
      "name": "schedule",
      "outputs": [
        {
          "internalType": "bytes32",
          "name": "operationId",
          "type": "bytes32"
        },
        {
          "internalType": "uint32",
          "name": "nonce",
          "type": "uint32"
        }
      ],
      "stateMutability": "nonpayable",
      "type": "function"
    },
    {
      "inputs": [
        {
          "internalType": "uint64",
          "name": "roleId",
          "type": "uint64"
        },
        {
          "internalType": "uint32",
          "name": "newDelay",
          "type": "uint32"
        }
      ],
      "name": "setGrantDelay",
      "outputs": [],
      "stateMutability": "nonpayable",
      "type": "function"
    },
    {
      "inputs": [
        {
          "internalType": "uint64",
          "name": "roleId",
          "type": "uint64"
        },
        {
          "internalType": "uint64",
          "name": "admin",
          "type": "uint64"
        }
      ],
      "name": "setRoleAdmin",
      "outputs": [],
      "stateMutability": "nonpayable",
      "type": "function"
    },
    {
      "inputs": [
        {
          "internalType": "uint64",
          "name": "roleId",
          "type": "uint64"
        },
        {
          "internalType": "uint64",
          "name": "guardian",
          "type": "uint64"
        }
      ],
      "name": "setRoleGuardian",
      "outputs": [],
      "stateMutability": "nonpayable",
      "type": "function"
    },
    {
      "inputs": [
        {
          "internalType": "address",
          "name": "target",
          "type": "address"
        },
        {
          "internalType": "uint32",
          "name": "newDelay",
          "type": "uint32"
        }
      ],
      "name": "setTargetAdminDelay",
      "outputs": [],
      "stateMutability": "nonpayable",
      "type": "function"
    },
    {
      "inputs": [
        {
          "internalType": "address",
          "name": "target",
          "type": "address"
        },
        {
          "internalType": "bool",
          "name": "closed",
          "type": "bool"
        }
      ],
      "name": "setTargetClosed",
      "outputs": [],
      "stateMutability": "nonpayable",
      "type": "function"
    },
    {
      "inputs": [
        {
          "internalType": "address",
          "name": "target",
          "type": "address"
        },
        {
          "internalType": "bytes4[]",
          "name": "selectors",
          "type": "bytes4[]"
        },
        {
          "internalType": "uint64",
          "name": "roleId",
          "type": "uint64"
        }
      ],
      "name": "setTargetFunctionRole",
      "outputs": [],
      "stateMutability": "nonpayable",
      "type": "function"
    },
    {
      "inputs": [
        {
          "internalType": "address",
          "name": "target",
          "type": "address"
        },
        {
          "internalType": "address",
          "name": "newAuthority",
          "type": "address"
        }
      ],
      "name": "updateAuthority",
      "outputs": [],
      "stateMutability": "nonpayable",
      "type": "function"
    }
  ],
  "bytecode": "0x608060405234801561001057600080fd5b5060405161331238038061331283398101604081905261002f91610451565b6001600160a01b03811661005e57604051630409d6d160e11b8152600060048201526024015b60405180910390fd5b61006b6000828180610072565b50506104d1565b60006002600160401b03196001600160401b038616016100b05760405163061c6a4360e21b81526001600160401b0386166004820152602401610055565b6001600160401b03851660009081526001602090815260408083206001600160a01b038816845290915281205465ffffffffffff16159081156101a75763ffffffff85166100fc6102bd565b6101069190610497565b905060405180604001604052808265ffffffffffff1681526020016101368663ffffffff166102cd60201b60201c565b6001600160701b039081169091526001600160401b03891660009081526001602090815260408083206001600160a01b038c16845282529091208351815494909201519092166601000000000000026001600160a01b031990931665ffffffffffff9091161791909117905561024f565b6001600160401b03871660009081526001602090815260408083206001600160a01b038a1684529091528120546101f49166010000000000009091046001600160701b03169086906102d6565b6001600160401b03891660009081526001602090815260408083206001600160a01b038c168452909152902080546001600160701b03909316660100000000000002600160301b600160a01b03199093169290921790915590505b6040805163ffffffff8616815265ffffffffffff831660208201528315158183015290516001600160a01b038816916001600160401b038a16917ff98448b987f1428e0e230e1f3c6e2ce15b5693eaf31827fbd0b1ec4b424ae7cf9181900360600190a35095945050505050565b60006102c84261037f565b905090565b63ffffffff1690565b600080806102ec6001600160701b0387166103b6565b905060006103298563ffffffff168763ffffffff168463ffffffff161161031457600061031e565b61031e88856104b5565b63ffffffff166103d5565b905063ffffffff811661033a6102bd565b6103449190610497565b925063ffffffff8616602083901b67ffffffff0000000016604085901b6dffffffffffff000000000000000016171793505050935093915050565b600065ffffffffffff8211156103b2576040516306dfcc6560e41b81526030600482015260248101839052604401610055565b5090565b6000806103cb6001600160701b0384166103e5565b5090949350505050565b8082118183180281185b92915050565b600080806103fa846103f56102bd565b610407565b9250925092509193909250565b6001600160501b03602083901c166001600160701b03831665ffffffffffff604085901c811690841681111561043f57828282610444565b816000805b9250925092509250925092565b60006020828403121561046357600080fd5b81516001600160a01b038116811461047a57600080fd5b9392505050565b634e487b7160e01b600052601160045260246000fd5b65ffffffffffff81811683821601908111156103df576103df610481565b63ffffffff82811682821603908111156103df576103df610481565b612e32806104e06000396000f3fe6080604052600436106101e35760003560e01c80636d5115bd11610102578063b700961311610095578063d22b598911610064578063d22b5989146106c4578063d6bb62c6146106e4578063f801a69814610704578063fe0776f51461073e57600080fd5b8063b700961314610632578063b7d2b1621461066e578063cc1b6c811461068e578063d1f856ee146106a457600080fd5b8063a166aa89116100d1578063a166aa8914610564578063a64d95ce146105b7578063abd9bd2a146105d7578063ac9650d81461060557600080fd5b80636d5115bd146104b857806375b238fc1461050f578063853551b81461052457806394c7d7ee1461054457600080fd5b806330cae1871161017a5780634665096d116101495780634665096d146104245780634c1da1e21461043a578063529629521461045a578063530dd4561461047a57600080fd5b806330cae187146103745780633adc277a146103945780633ca7c02a146103cb5780634136a33c146103e757600080fd5b806318ff183c116101b657806318ff183c146102c75780631cff79cd146102e757806325c471a0146102fa5780633078f1141461031a57600080fd5b806308d6122d146101e85780630b0a93ba1461020a57806312be872714610272578063167bd395146102a7575b600080fd5b3480156101f457600080fd5b50610208610203366004612622565b61075e565b005b34801561021657600080fd5b50610254610225366004612689565b67ffffffffffffffff908116600090815260016020819052604090912001546801000000000000000090041690565b60405167ffffffffffffffff90911681526020015b60405180910390f35b34801561027e57600080fd5b5061029261028d366004612689565b6107b1565b60405163ffffffff9091168152602001610269565b3480156102b357600080fd5b506102086102c23660046126a4565b6107ed565b3480156102d357600080fd5b506102086102e23660046126e2565b610803565b6102926102f5366004612752565b610883565b34801561030657600080fd5b506102086103153660046127bb565b610a09565b34801561032657600080fd5b5061033a610335366004612800565b610a2b565b604051610269949392919065ffffffffffff948516815263ffffffff93841660208201529190921660408201529116606082015260800190565b34801561038057600080fd5b5061020861038f36600461281c565b610a94565b3480156103a057600080fd5b506103b46103af36600461284f565b610aa6565b60405165ffffffffffff9091168152602001610269565b3480156103d757600080fd5b5061025467ffffffffffffffff81565b3480156103f357600080fd5b5061029261040236600461284f565b6000908152600260205260409020546601000000000000900463ffffffff1690565b34801561043057600080fd5b5062093a80610292565b34801561044657600080fd5b50610292610455366004612868565b610ad9565b34801561046657600080fd5b5061020861047536600461281c565b610b07565b34801561048657600080fd5b50610254610495366004612689565b67ffffffffffffffff908116600090815260016020819052604090912001541690565b3480156104c457600080fd5b506102546104d336600461289b565b6001600160a01b0382166000908152602081815260408083206001600160e01b03198516845290915290205467ffffffffffffffff1692915050565b34801561051b57600080fd5b50610254600081565b34801561053057600080fd5b5061020861053f3660046128c9565b610b19565b34801561055057600080fd5b5061020861055f366004612752565b610bb4565b34801561057057600080fd5b506105a761057f366004612868565b6001600160a01b0316600090815260208190526040902060010154600160701b900460ff1690565b6040519015158152602001610269565b3480156105c357600080fd5b506102086105d23660046128e7565b610c92565b3480156105e357600080fd5b506105f76105f2366004612911565b610ca4565b604051908152602001610269565b34801561061157600080fd5b50610625610620366004612976565b610cdd565b6040516102699190612a08565b34801561063e57600080fd5b5061065261064d366004612a6d565b610dc5565b60408051921515835263ffffffff909116602083015201610269565b34801561067a57600080fd5b50610208610689366004612800565b610ec6565b34801561069a57600080fd5b5062069780610292565b3480156106b057600080fd5b506106526106bf366004612800565b610edd565b3480156106d057600080fd5b506102086106df366004612ab8565b610f5b565b3480156106f057600080fd5b506102926106ff366004612911565b610f6d565b34801561071057600080fd5b5061072461071f366004612ad6565b611116565b6040805192835263ffffffff909116602083015201610269565b34801561074a57600080fd5b50610208610759366004612800565b61125e565b6107666112a0565b60005b828110156107aa576107a28585858481811061078757610787612b49565b905060200201602081019061079c9190612b5f565b84611335565b600101610769565b5050505050565b67ffffffffffffffff81166000908152600160208190526040822001546107e790600160801b90046001600160701b03166113b8565b92915050565b6107f56112a0565b6107ff82826113d7565b5050565b61080b6112a0565b6040517f7a9e5e4b0000000000000000000000000000000000000000000000000000000081526001600160a01b038281166004830152831690637a9e5e4b90602401600060405180830381600087803b15801561086757600080fd5b505af115801561087b573d6000803e3d6000fd5b505050505050565b600033818061089483888888611454565b91509150811580156108aa575063ffffffff8116155b156109165782876108bb88886114a7565b6040517f81c6f24b0000000000000000000000000000000000000000000000000000000081526001600160a01b0393841660048201529290911660248301526001600160e01b03191660448201526064015b60405180910390fd5b600061092484898989610ca4565b9050600063ffffffff831615158061094b575061094082610aa6565b65ffffffffffff1615155b1561095c57610959826114bf565b90505b6003546109af8a61096d8b8b6114a7565b604080516001600160a01b03939093166020808501919091526001600160e01b0319929092168382015280518084038201815260609093019052815191012090565b6003819055506109f78a8a8a8080601f0160208091040260200160405190810160405280939291908181526020018383808284376000920191909152503492506115f4915050565b506003559450505050505b9392505050565b610a116112a0565b610a258383610a1f866107b1565b846116b1565b50505050565b67ffffffffffffffff821660009081526001602090815260408083206001600160a01b03851684529091528120805465ffffffffffff811692918291829190610a8690660100000000000090046001600160701b0316611924565b969991985096509350505050565b610a9c6112a0565b6107ff8282611947565b60008181526002602052604081205465ffffffffffff16610ac6816119ef565b610ad05780610a02565b60009392505050565b6001600160a01b0381166000908152602081905260408120600101546107e7906001600160701b03166113b8565b610b0f6112a0565b6107ff8282611a1e565b610b216112a0565b67ffffffffffffffff83161580610b41575067ffffffffffffffff838116145b15610b6b5760405163061c6a4360e21b815267ffffffffffffffff8416600482015260240161090d565b8267ffffffffffffffff167f1256f5b5ecb89caec12db449738f2fbcd1ba5806cf38f35413f4e5c15bf6a4508383604051610ba7929190612ba5565b60405180910390a2505050565b604080517f8fb360370000000000000000000000000000000000000000000000000000000080825291513392918391638fb36037916004808201926020929091908290030181865afa158015610c0e573d6000803e3d6000fd5b505050506040513d601f19601f82011682018060405250810190610c329190612bc1565b6001600160e01b03191614610c7e576040517f320ff7480000000000000000000000000000000000000000000000000000000081526001600160a01b038216600482015260240161090d565b6107aa610c8d85838686610ca4565b6114bf565b610c9a6112a0565b6107ff8282611ae8565b600084848484604051602001610cbd9493929190612bde565b604051602081830303815290604052805190602001209050949350505050565b6040805160008152602081019091526060908267ffffffffffffffff811115610d0857610d08612c50565b604051908082528060200260200182016040528015610d3b57816020015b6060815260200190600190039081610d265790505b50915060005b83811015610dbd57610d9830868684818110610d5f57610d5f612b49565b9050602002810190610d719190612c66565b85604051602001610d8493929190612cad565b604051602081830303815290604052611c0b565b838281518110610daa57610daa612b49565b6020908102919091010152600101610d41565b505092915050565b6001600160a01b0382166000908152602081905260408120600101548190600160701b900460ff1615610dfd57506000905080610ebe565b306001600160a01b03861603610e5957604080516001600160a01b0386166020808301919091526001600160e01b031986168284015282518083038401815260609092019092528051910120600354145b600091509150610ebe565b6001600160a01b0384166000908152602081815260408083206001600160e01b03198716845290915281205467ffffffffffffffff169080610e9b8389610edd565b9150915081610eac57600080610eb6565b63ffffffff811615815b945094505050505b935093915050565b610ece6112a0565b610ed88282611c81565b505050565b60008067fffffffffffffffe1967ffffffffffffffff851601610f065750600190506000610f54565b600080610f138686610a2b565b5050915091508165ffffffffffff16600014158015610f495750610f35611d7f565b65ffffffffffff168265ffffffffffff1611155b93509150610f549050565b9250929050565b610f636112a0565b6107ff8282611d8f565b60003381610f7b85856114a7565b90506000610f8b88888888610ca4565b60008181526002602052604081205491925065ffffffffffff9091169003610fc95760405163060a299b60e41b81526004810182905260240161090d565b826001600160a01b0316886001600160a01b0316146110b1576000610fef600085610edd565b506001600160a01b0389166000908152602081815260408083206001600160e01b0319881684529091528120549192509061103d906110379067ffffffffffffffff16610225565b86610edd565b5090508115801561104c575080155b156110ae576040517f3fe2751c0000000000000000000000000000000000000000000000000000000081526001600160a01b038087166004830152808c1660248301528a1660448201526001600160e01b03198516606482015260840161090d565b50505b600081815260026020526040808220805465ffffffffffff1916908190559051660100000000000090910463ffffffff1691829184917fbd9ac67a6e2f6463b80927326310338bcbb4bdb7936ce1365ea3e01067e7b9f791a398975050505050505050565b600080338161112782898989611454565b91505060008163ffffffff1661113b611d7f565b6111459190612cd4565b905063ffffffff8216158061117c575060008665ffffffffffff1611801561117c57508065ffffffffffff168665ffffffffffff16105b1561118d5782896108bb8a8a6114a7565b6111a78665ffffffffffff168265ffffffffffff16611e4c565b95506111b5838a8a8a610ca4565b94506111c085611e5c565b60008581526002602052604090819020805465ffffffffffff891669ffffffffffffffffffff1982161766010000000000009182900463ffffffff90811660010190811692830291909117909255915190955086907f82a2da5dee54ea8021c6545b4444620291e07ee83be6dd57edb175062715f3b49061124a908a9088908f908f908f90612cf2565b60405180910390a350505094509492505050565b6001600160a01b0381163314610ece576040517f5f159e6300000000000000000000000000000000000000000000000000000000815260040160405180910390fd5b336000806112af838236611ec2565b9150915081610ed8578063ffffffff166000036113255760006112d28136611fe2565b506040517ff07e038f0000000000000000000000000000000000000000000000000000000081526001600160a01b038716600482015267ffffffffffffffff82166024820152909250604401905061090d565b610a25610c8d8430600036610ca4565b6001600160a01b0383166000818152602081815260408083206001600160e01b0319871680855290835292819020805467ffffffffffffffff191667ffffffffffffffff8716908117909155905192835292917f9ea6790c7dadfd01c9f8b9762b3682607af2c7e79e05a9f9fdf5580dde949151910160405180910390a3505050565b6000806113cd836001600160701b0316611924565b5090949350505050565b6001600160a01b038216600081815260208190526040908190206001018054841515600160701b026eff000000000000000000000000000019909116179055517f90d4e7bb7e5d933792b3562e1741306f8be94837e1348dacef9b6f1df56eb1389061144890841515815260200190565b60405180910390a25050565b600080306001600160a01b0386160361147b57611472868585611ec2565b9150915061149e565b6004831061149757611492868661064d87876114a7565b611472565b5060009050805b94509492505050565b60006114b66004828486612c26565b610a0291612d3d565b60008181526002602052604081205465ffffffffffff8116906601000000000000900463ffffffff1681830361150b5760405163060a299b60e41b81526004810185905260240161090d565b611513611d7f565b65ffffffffffff168265ffffffffffff16111561155f576040517f18cb6b7a0000000000000000000000000000000000000000000000000000000081526004810185905260240161090d565b611568826119ef565b156115a2576040517f78a5d6e40000000000000000000000000000000000000000000000000000000081526004810185905260240161090d565b600084815260026020526040808220805465ffffffffffff191690555163ffffffff83169186917f76a2a46953689d4861a5d3f6ed883ad7e6af674a21f8e162707159fc9dde614d9190a39392505050565b606081471015611639576040517fcf4791810000000000000000000000000000000000000000000000000000000081524760048201526024810183905260440161090d565b600080856001600160a01b031684866040516116559190612d73565b60006040518083038185875af1925050503d8060008114611692576040519150601f19603f3d011682016040523d82523d6000602084013e611697565b606091505b50915091506116a78683836122f0565b9695505050505050565b600067fffffffffffffffe1967ffffffffffffffff8616016116f25760405163061c6a4360e21b815267ffffffffffffffff8616600482015260240161090d565b67ffffffffffffffff851660009081526001602090815260408083206001600160a01b038816845290915281205465ffffffffffff16159081156117f6578463ffffffff1661173f611d7f565b6117499190612cd4565b905060405180604001604052808265ffffffffffff1681526020016117778663ffffffff1663ffffffff1690565b6001600160701b0390811690915267ffffffffffffffff891660009081526001602090815260408083206001600160a01b038c168452825290912083518154949092015190921666010000000000000273ffffffffffffffffffffffffffffffffffffffff1990931665ffffffffffff909116179190911790556118b5565b67ffffffffffffffff871660009081526001602090815260408083206001600160a01b038a1684529091528120546118449166010000000000009091046001600160701b0316908690612387565b67ffffffffffffffff891660009081526001602090815260408083206001600160a01b038c168452909152902080546001600160701b039093166601000000000000027fffffffffffffffffffffffff0000000000000000000000000000ffffffffffff9093169290921790915590505b6040805163ffffffff8616815265ffffffffffff831660208201528315158183015290516001600160a01b0388169167ffffffffffffffff8a16917ff98448b987f1428e0e230e1f3c6e2ce15b5693eaf31827fbd0b1ec4b424ae7cf9181900360600190a35095945050505050565b600080600061193a84611935611d7f565b612431565b9250925092509193909250565b67ffffffffffffffff82161580611967575067ffffffffffffffff828116145b156119915760405163061c6a4360e21b815267ffffffffffffffff8316600482015260240161090d565b67ffffffffffffffff8281166000818152600160208190526040808320909101805467ffffffffffffffff19169486169485179055517f1fd6dd7631312dfac2205b52913f99de03b4d7e381d5d27d3dbfe0713e6e63409190a35050565b60006119f9611d7f565b65ffffffffffff16611a0e62093a8084612cd4565b65ffffffffffff16111592915050565b67ffffffffffffffff82161580611a3e575067ffffffffffffffff828116145b15611a685760405163061c6a4360e21b815267ffffffffffffffff8316600482015260240161090d565b67ffffffffffffffff828116600081815260016020819052604080832090910180547fffffffffffffffffffffffffffffffff0000000000000000ffffffffffffffff1668010000000000000000958716958602179055517f7a8059630b897b5de4c08ade69f8b90c3ead1f8596d62d10b6c4d14a0afb4ae29190a35050565b67fffffffffffffffe1967ffffffffffffffff831601611b275760405163061c6a4360e21b815267ffffffffffffffff8316600482015260240161090d565b67ffffffffffffffff8216600090815260016020819052604082200154611b6290600160801b90046001600160701b03168362069780612387565b67ffffffffffffffff85166000818152600160208190526040918290200180546001600160701b03909516600160801b027fffff0000000000000000000000000000ffffffffffffffffffffffffffffffff9095169490941790935591519092507ffeb69018ee8b8fd50ea86348f1267d07673379f72cffdeccec63853ee8ce8b4890610ba7908590859063ffffffff92909216825265ffffffffffff16602082015260400190565b6060600080846001600160a01b031684604051611c289190612d73565b600060405180830381855af49150503d8060008114611c63576040519150601f19603f3d011682016040523d82523d6000602084013e611c68565b606091505b5091509150611c788583836122f0565b95945050505050565b600067fffffffffffffffe1967ffffffffffffffff841601611cc25760405163061c6a4360e21b815267ffffffffffffffff8416600482015260240161090d565b67ffffffffffffffff831660009081526001602090815260408083206001600160a01b038616845290915281205465ffffffffffff169003611d06575060006107e7565b67ffffffffffffffff831660008181526001602090815260408083206001600160a01b0387168085529252808320805473ffffffffffffffffffffffffffffffffffffffff19169055519092917ff229baa593af28c41b1d16b748cd7688f0c83aaf92d4be41c44005defe84c16691a350600192915050565b6000611d8a4261247e565b905090565b6001600160a01b038216600090815260208190526040812060010154611dc2906001600160701b03168362069780612387565b6001600160a01b0385166000818152602081815260409182902060010180546dffffffffffffffffffffffffffff19166001600160701b039690961695909517909455805163ffffffff8716815265ffffffffffff841694810194909452919350917fa56b76017453f399ec2327ba00375dbfb1fd070ff854341ad6191e6a2e2de19c9101610ba7565b6000828218828411028218610a02565b60008181526002602052604090205465ffffffffffff168015801590611e885750611e86816119ef565b155b156107ff576040517f813e94590000000000000000000000000000000000000000000000000000000081526004810183905260240161090d565b6000806004831015611ed957506000905080610ebe565b306001600160a01b03861603611f3d57610e4e30611ef786866114a7565b604080516001600160a01b03939093166020808501919091526001600160e01b031992909216838201528051808403820181526060909301905281519101206003541490565b6000806000611f4c8787611fe2565b92509250925082158015611f79575030600090815260208190526040902060010154600160701b900460ff165b15611f8d5760008094509450505050610ebe565b600080611f9a848b610edd565b9150915081611fb457600080965096505050505050610ebe565b611fca8363ffffffff168263ffffffff16611e4c565b63ffffffff8116159b909a5098505050505050505050565b600080806004841015611ffd575060009150819050806122e9565b600061200986866114a7565b90506001600160e01b031981167f853551b800000000000000000000000000000000000000000000000000000000148061206c57506001600160e01b031981167f30cae18700000000000000000000000000000000000000000000000000000000145b806120a057506001600160e01b031981167f5296295200000000000000000000000000000000000000000000000000000000145b806120d457506001600160e01b031981167fa64d95ce00000000000000000000000000000000000000000000000000000000145b8061210857506001600160e01b031981167fd22b598900000000000000000000000000000000000000000000000000000000145b1561211e576001600080935093509350506122e9565b6001600160e01b031981167f18ff183c00000000000000000000000000000000000000000000000000000000148061217f57506001600160e01b031981167f167bd39500000000000000000000000000000000000000000000000000000000145b806121b357506001600160e01b031981167f08d6122d00000000000000000000000000000000000000000000000000000000145b156121f55760006121c860246004888a612c26565b8101906121d59190612868565b905060006121e282610ad9565b600196506000955093506122e992505050565b6001600160e01b031981167f25c471a000000000000000000000000000000000000000000000000000000000148061225657506001600160e01b031981167fb7d2b16200000000000000000000000000000000000000000000000000000000145b156122b257600061226b60246004888a612c26565b8101906122789190612689565b905060016122a38267ffffffffffffffff908116600090815260016020819052604090912001541690565b600094509450945050506122e9565b306000908152602081815260408083206001600160e01b03198516845290915281205467ffffffffffffffff166000935093509350505b9250925092565b60606123146040518060600160405280602d8152602001612dd0602d9139846124ce565b826123275761232282612541565b610a02565b815115801561233e57506001600160a01b0384163b155b15612380576040517f9996b3150000000000000000000000000000000000000000000000000000000081526001600160a01b038516600482015260240161090d565b5080610a02565b600080600061239e866001600160701b03166113b8565b905060006123db8563ffffffff168763ffffffff168463ffffffff16116123c65760006123d0565b6123d08885612d8f565b63ffffffff16611e4c565b90508063ffffffff166123ec611d7f565b6123f69190612cd4565b925063ffffffff8616602083901b67ffffffff0000000016604085901b6dffffffffffff000000000000000016171793505050935093915050565b69ffffffffffffffffffff602083901c166001600160701b03831665ffffffffffff604085901c811690841681111561246c57828282612471565b816000805b9250925092509250925092565b600065ffffffffffff8211156124ca576040517f6dfcc650000000000000000000000000000000000000000000000000000000008152603060048201526024810183905260440161090d565b5090565b6107ff82826040516024016124e4929190612dab565b60408051601f198184030181529190526020810180517bffffffffffffffffffffffffffffffffffffffffffffffffffffffff167fc3b5563500000000000000000000000000000000000000000000000000000000179052612586565b8051156125515780518082602001fd5b6040517fd6bda27500000000000000000000000000000000000000000000000000000000815260040160405180910390fd5b50565b6125838160006a636f6e736f6c652e6c6f679050600080835160208501845afa505050565b6001600160a01b038116811461258357600080fd5b60008083601f8401126125d257600080fd5b50813567ffffffffffffffff8111156125ea57600080fd5b6020830191508360208260051b8501011115610f5457600080fd5b803567ffffffffffffffff8116811461261d57600080fd5b919050565b6000806000806060858703121561263857600080fd5b8435612643816125ab565b9350602085013567ffffffffffffffff81111561265f57600080fd5b61266b878288016125c0565b909450925061267e905060408601612605565b905092959194509250565b60006020828403121561269b57600080fd5b610a0282612605565b600080604083850312156126b757600080fd5b82356126c2816125ab565b9150602083013580151581146126d757600080fd5b809150509250929050565b600080604083850312156126f557600080fd5b8235612700816125ab565b915060208301356126d7816125ab565b60008083601f84011261272257600080fd5b50813567ffffffffffffffff81111561273a57600080fd5b602083019150836020828501011115610f5457600080fd5b60008060006040848603121561276757600080fd5b8335612772816125ab565b9250602084013567ffffffffffffffff81111561278e57600080fd5b61279a86828701612710565b9497909650939450505050565b803563ffffffff8116811461261d57600080fd5b6000806000606084860312156127d057600080fd5b6127d984612605565b925060208401356127e9816125ab565b91506127f7604085016127a7565b90509250925092565b6000806040838503121561281357600080fd5b61270083612605565b6000806040838503121561282f57600080fd5b61283883612605565b915061284660208401612605565b90509250929050565b60006020828403121561286157600080fd5b5035919050565b60006020828403121561287a57600080fd5b8135610a02816125ab565b6001600160e01b03198116811461258357600080fd5b600080604083850312156128ae57600080fd5b82356128b9816125ab565b915060208301356126d781612885565b6000806000604084860312156128de57600080fd5b61277284612605565b600080604083850312156128fa57600080fd5b61290383612605565b9150612846602084016127a7565b6000806000806060858703121561292757600080fd5b8435612932816125ab565b93506020850135612942816125ab565b9250604085013567ffffffffffffffff81111561295e57600080fd5b61296a87828801612710565b95989497509550505050565b6000806020838503121561298957600080fd5b823567ffffffffffffffff8111156129a057600080fd5b6129ac858286016125c0565b90969095509350505050565b60005b838110156129d35781810151838201526020016129bb565b50506000910152565b600081518084526129f48160208601602086016129b8565b601f01601f19169290920160200192915050565b6000602082016020835280845180835260408501915060408160051b86010192506020860160005b82811015612a6157603f19878603018452612a4c8583516129dc565b94506020938401939190910190600101612a30565b50929695505050505050565b600080600060608486031215612a8257600080fd5b8335612a8d816125ab565b92506020840135612a9d816125ab565b91506040840135612aad81612885565b809150509250925092565b60008060408385031215612acb57600080fd5b8235612903816125ab565b60008060008060608587031215612aec57600080fd5b8435612af7816125ab565b9350602085013567ffffffffffffffff811115612b1357600080fd5b612b1f87828801612710565b909450925050604085013565ffffffffffff81168114612b3e57600080fd5b939692955090935050565b634e487b7160e01b600052603260045260246000fd5b600060208284031215612b7157600080fd5b8135610a0281612885565b81835281816020850137506000828201602090810191909152601f909101601f19169091010190565b602081526000612bb9602083018486612b7c565b949350505050565b600060208284031215612bd357600080fd5b8151610a0281612885565b6001600160a01b03851681526001600160a01b03841660208201526060604082015260006116a7606083018486612b7c565b634e487b7160e01b600052601160045260246000fd5b60008085851115612c3657600080fd5b83861115612c4357600080fd5b5050820193919092039150565b634e487b7160e01b600052604160045260246000fd5b6000808335601e19843603018112612c7d57600080fd5b83018035915067ffffffffffffffff821115612c9857600080fd5b602001915036819003821315610f5457600080fd5b828482376000838201600081528351612cca8183602088016129b8565b0195945050505050565b65ffffffffffff81811683821601908111156107e7576107e7612c10565b65ffffffffffff861681526001600160a01b03851660208201526001600160a01b0384166040820152608060608201526000612d32608083018486612b7c565b979650505050505050565b80356001600160e01b03198116906004841015612d6c576001600160e01b0319808560040360031b1b82161691505b5092915050565b60008251612d858184602087016129b8565b9190910192915050565b63ffffffff82811682821603908111156107e7576107e7612c10565b604081526000612dbe60408301856129dc565b90508215156020830152939250505056fe416464726573732d76657269667943616c6c526573756c7446726f6d54617267657428292d737563636573733aa26469706673582212208b41e6f5c584d884e28a76ddbd72dfd4a975876e6851ad08de00fd9f1ab1f49a64736f6c634300081b0033",
  "linkReferences": {},
  "deployedLinkReferences": {}
}