{
  "_format": "hh-sol-artifact-1",
  "contractName": "kokoToken",
  "sourceName": "contracts/kokoToken.sol",
  "abi": [
    {
      "inputs": [
        {
          "internalType": "string",
          "name": "_name",
          "type": "string"
        },
        {
          "internalType": "string",
          "name": "_symbol",
          "type": "string"
        }
      ],
      "stateMutability": "nonpayable",
      "type": "constructor"
    },
    {
      "inputs": [],
      "name": "CheckpointUnorderedInsertion",
      "type": "error"
    },
    {
      "inputs": [],
      "name": "ECDSAInvalidSignature",
      "type": "error"
    },
    {
      "inputs": [
        {
          "internalType": "uint256",
          "name": "length",
          "type": "uint256"
        }
      ],
      "name": "ECDSAInvalidSignatureLength",
      "type": "error"
    },
    {
      "inputs": [
        {
          "internalType": "bytes32",
          "name": "s",
          "type": "bytes32"
        }
      ],
      "name": "ECDSAInvalidSignatureS",
      "type": "error"
    },
    {
      "inputs": [
        {
          "internalType": "uint256",
          "name": "increasedSupply",
          "type": "uint256"
        },
        {
          "internalType": "uint256",
          "name": "cap",
          "type": "uint256"
        }
      ],
      "name": "ERC20ExceededSafeSupply",
      "type": "error"
    },
    {
      "inputs": [
        {
          "internalType": "address",
          "name": "spender",
          "type": "address"
        },
        {
          "internalType": "uint256",
          "name": "allowance",
          "type": "uint256"
        },
        {
          "internalType": "uint256",
          "name": "needed",
          "type": "uint256"
        }
      ],
      "name": "ERC20InsufficientAllowance",
      "type": "error"
    },
    {
      "inputs": [
        {
          "internalType": "address",
          "name": "sender",
          "type": "address"
        },
        {
          "internalType": "uint256",
          "name": "balance",
          "type": "uint256"
        },
        {
          "internalType": "uint256",
          "name": "needed",
          "type": "uint256"
        }
      ],
      "name": "ERC20InsufficientBalance",
      "type": "error"
    },
    {
      "inputs": [
        {
          "internalType": "address",
          "name": "approver",
          "type": "address"
        }
      ],
      "name": "ERC20InvalidApprover",
      "type": "error"
    },
    {
      "inputs": [
        {
          "internalType": "address",
          "name": "receiver",
          "type": "address"
        }
      ],
      "name": "ERC20InvalidReceiver",
      "type": "error"
    },
    {
      "inputs": [
        {
          "internalType": "address",
          "name": "sender",
          "type": "address"
        }
      ],
      "name": "ERC20InvalidSender",
      "type": "error"
    },
    {
      "inputs": [
        {
          "internalType": "address",
          "name": "spender",
          "type": "address"
        }
      ],
      "name": "ERC20InvalidSpender",
      "type": "error"
    },
    {
      "inputs": [
        {
          "internalType": "uint256",
          "name": "deadline",
          "type": "uint256"
        }
      ],
      "name": "ERC2612ExpiredSignature",
      "type": "error"
    },
    {
      "inputs": [
        {
          "internalType": "address",
          "name": "signer",
          "type": "address"
        },
        {
          "internalType": "address",
          "name": "owner",
          "type": "address"
        }
      ],
      "name": "ERC2612InvalidSigner",
      "type": "error"
    },
    {
      "inputs": [
        {
          "internalType": "uint256",
          "name": "timepoint",
          "type": "uint256"
        },
        {
          "internalType": "uint48",
          "name": "clock",
          "type": "uint48"
        }
      ],
      "name": "ERC5805FutureLookup",
      "type": "error"
    },
    {
      "inputs": [],
      "name": "ERC6372InconsistentClock",
      "type": "error"
    },
    {
      "inputs": [
        {
          "internalType": "address",
          "name": "account",
          "type": "address"
        },
        {
          "internalType": "uint256",
          "name": "currentNonce",
          "type": "uint256"
        }
      ],
      "name": "InvalidAccountNonce",
      "type": "error"
    },
    {
      "inputs": [],
      "name": "InvalidShortString",
      "type": "error"
    },
    {
      "inputs": [
        {
          "internalType": "uint8",
          "name": "bits",
          "type": "uint8"
        },
        {
          "internalType": "uint256",
          "name": "value",
          "type": "uint256"
        }
      ],
      "name": "SafeCastOverflowedUintDowncast",
      "type": "error"
    },
    {
      "inputs": [
        {
          "internalType": "string",
          "name": "str",
          "type": "string"
        }
      ],
      "name": "StringTooLong",
      "type": "error"
    },
    {
      "inputs": [
        {
          "internalType": "uint256",
          "name": "expiry",
          "type": "uint256"
        }
      ],
      "name": "VotesExpiredSignature",
      "type": "error"
    },
    {
      "anonymous": false,
      "inputs": [
        {
          "indexed": true,
          "internalType": "address",
          "name": "owner",
          "type": "address"
        },
        {
          "indexed": true,
          "internalType": "address",
          "name": "spender",
          "type": "address"
        },
        {
          "indexed": false,
          "internalType": "uint256",
          "name": "value",
          "type": "uint256"
        }
      ],
      "name": "Approval",
      "type": "event"
    },
    {
      "anonymous": false,
      "inputs": [
        {
          "indexed": true,
          "internalType": "address",
          "name": "delegator",
          "type": "address"
        },
        {
          "indexed": true,
          "internalType": "address",
          "name": "fromDelegate",
          "type": "address"
        },
        {
          "indexed": true,
          "internalType": "address",
          "name": "toDelegate",
          "type": "address"
        }
      ],
      "name": "DelegateChanged",
      "type": "event"
    },
    {
      "anonymous": false,
      "inputs": [
        {
          "indexed": true,
          "internalType": "address",
          "name": "delegate",
          "type": "address"
        },
        {
          "indexed": false,
          "internalType": "uint256",
          "name": "previousVotes",
          "type": "uint256"
        },
        {
          "indexed": false,
          "internalType": "uint256",
          "name": "newVotes",
          "type": "uint256"
        }
      ],
      "name": "DelegateVotesChanged",
      "type": "event"
    },
    {
      "anonymous": false,
      "inputs": [],
      "name": "EIP712DomainChanged",
      "type": "event"
    },
    {
      "anonymous": false,
      "inputs": [
        {
          "indexed": true,
          "internalType": "address",
          "name": "from",
          "type": "address"
        },
        {
          "indexed": true,
          "internalType": "address",
          "name": "to",
          "type": "address"
        },
        {
          "indexed": false,
          "internalType": "uint256",
          "name": "value",
          "type": "uint256"
        }
      ],
      "name": "Transfer",
      "type": "event"
    },
    {
      "inputs": [],
      "name": "CLOCK_MODE",
      "outputs": [
        {
          "internalType": "string",
          "name": "",
          "type": "string"
        }
      ],
      "stateMutability": "view",
      "type": "function"
    },
    {
      "inputs": [],
      "name": "DOMAIN_SEPARATOR",
      "outputs": [
        {
          "internalType": "bytes32",
          "name": "",
          "type": "bytes32"
        }
      ],
      "stateMutability": "view",
      "type": "function"
    },
    {
      "inputs": [
        {
          "internalType": "address",
          "name": "owner",
          "type": "address"
        },
        {
          "internalType": "address",
          "name": "spender",
          "type": "address"
        }
      ],
      "name": "allowance",
      "outputs": [
        {
          "internalType": "uint256",
          "name": "",
          "type": "uint256"
        }
      ],
      "stateMutability": "view",
      "type": "function"
    },
    {
      "inputs": [
        {
          "internalType": "address",
          "name": "spender",
          "type": "address"
        },
        {
          "internalType": "uint256",
          "name": "value",
          "type": "uint256"
        }
      ],
      "name": "approve",
      "outputs": [
        {
          "internalType": "bool",
          "name": "",
          "type": "bool"
        }
      ],
      "stateMutability": "nonpayable",
      "type": "function"
    },
    {
      "inputs": [
        {
          "internalType": "address",
          "name": "account",
          "type": "address"
        }
      ],
      "name": "balanceOf",
      "outputs": [
        {
          "internalType": "uint256",
          "name": "",
          "type": "uint256"
        }
      ],
      "stateMutability": "view",
      "type": "function"
    },
    {
      "inputs": [
        {
          "internalType": "address",
          "name": "account",
          "type": "address"
        },
        {
          "internalType": "uint32",
          "name": "pos",
          "type": "uint32"
        }
      ],
      "name": "checkpoints",
      "outputs": [
        {
          "components": [
            {
              "internalType": "uint48",
              "name": "_key",
              "type": "uint48"
            },
            {
              "internalType": "uint208",
              "name": "_value",
              "type": "uint208"
            }
          ],
          "internalType": "struct Checkpoints.Checkpoint208",
          "name": "",
          "type": "tuple"
        }
      ],
      "stateMutability": "view",
      "type": "function"
    },
    {
      "inputs": [],
      "name": "clock",
      "outputs": [
        {
          "internalType": "uint48",
          "name": "",
          "type": "uint48"
        }
      ],
      "stateMutability": "view",
      "type": "function"
    },
    {
      "inputs": [],
      "name": "decimals",
      "outputs": [
        {
          "internalType": "uint8",
          "name": "",
          "type": "uint8"
        }
      ],
      "stateMutability": "view",
      "type": "function"
    },
    {
      "inputs": [
        {
          "internalType": "address",
          "name": "delegatee",
          "type": "address"
        }
      ],
      "name": "delegate",
      "outputs": [],
      "stateMutability": "nonpayable",
      "type": "function"
    },
    {
      "inputs": [
        {
          "internalType": "address",
          "name": "delegatee",
          "type": "address"
        },
        {
          "internalType": "uint256",
          "name": "nonce",
          "type": "uint256"
        },
        {
          "internalType": "uint256",
          "name": "expiry",
          "type": "uint256"
        },
        {
          "internalType": "uint8",
          "name": "v",
          "type": "uint8"
        },
        {
          "internalType": "bytes32",
          "name": "r",
          "type": "bytes32"
        },
        {
          "internalType": "bytes32",
          "name": "s",
          "type": "bytes32"
        }
      ],
      "name": "delegateBySig",
      "outputs": [],
      "stateMutability": "nonpayable",
      "type": "function"
    },
    {
      "inputs": [
        {
          "internalType": "address",
          "name": "account",
          "type": "address"
        }
      ],
      "name": "delegates",
      "outputs": [
        {
          "internalType": "address",
          "name": "",
          "type": "address"
        }
      ],
      "stateMutability": "view",
      "type": "function"
    },
    {
      "inputs": [],
      "name": "eip712Domain",
      "outputs": [
        {
          "internalType": "bytes1",
          "name": "fields",
          "type": "bytes1"
        },
        {
          "internalType": "string",
          "name": "name",
          "type": "string"
        },
        {
          "internalType": "string",
          "name": "version",
          "type": "string"
        },
        {
          "internalType": "uint256",
          "name": "chainId",
          "type": "uint256"
        },
        {
          "internalType": "address",
          "name": "verifyingContract",
          "type": "address"
        },
        {
          "internalType": "bytes32",
          "name": "salt",
          "type": "bytes32"
        },
        {
          "internalType": "uint256[]",
          "name": "extensions",
          "type": "uint256[]"
        }
      ],
      "stateMutability": "view",
      "type": "function"
    },
    {
      "inputs": [
        {
          "internalType": "uint256",
          "name": "timepoint",
          "type": "uint256"
        }
      ],
      "name": "getPastTotalSupply",
      "outputs": [
        {
          "internalType": "uint256",
          "name": "",
          "type": "uint256"
        }
      ],
      "stateMutability": "view",
      "type": "function"
    },
    {
      "inputs": [
        {
          "internalType": "address",
          "name": "account",
          "type": "address"
        },
        {
          "internalType": "uint256",
          "name": "timepoint",
          "type": "uint256"
        }
      ],
      "name": "getPastVotes",
      "outputs": [
        {
          "internalType": "uint256",
          "name": "",
          "type": "uint256"
        }
      ],
      "stateMutability": "view",
      "type": "function"
    },
    {
      "inputs": [
        {
          "internalType": "address",
          "name": "account",
          "type": "address"
        }
      ],
      "name": "getVotes",
      "outputs": [
        {
          "internalType": "uint256",
          "name": "",
          "type": "uint256"
        }
      ],
      "stateMutability": "view",
      "type": "function"
    },
    {
      "inputs": [
        {
          "internalType": "uint256",
          "name": "value",
          "type": "uint256"
        }
      ],
      "name": "mint",
      "outputs": [],
      "stateMutability": "nonpayable",
      "type": "function"
    },
    {
      "inputs": [],
      "name": "name",
      "outputs": [
        {
          "internalType": "string",
          "name": "",
          "type": "string"
        }
      ],
      "stateMutability": "view",
      "type": "function"
    },
    {
      "inputs": [
        {
          "internalType": "address",
          "name": "owner",
          "type": "address"
        }
      ],
      "name": "nonces",
      "outputs": [
        {
          "internalType": "uint256",
          "name": "",
          "type": "uint256"
        }
      ],
      "stateMutability": "view",
      "type": "function"
    },
    {
      "inputs": [
        {
          "internalType": "address",
          "name": "account",
          "type": "address"
        }
      ],
      "name": "numCheckpoints",
      "outputs": [
        {
          "internalType": "uint32",
          "name": "",
          "type": "uint32"
        }
      ],
      "stateMutability": "view",
      "type": "function"
    },
    {
      "inputs": [
        {
          "internalType": "address",
          "name": "owner",
          "type": "address"
        },
        {
          "internalType": "address",
          "name": "spender",
          "type": "address"
        },
        {
          "internalType": "uint256",
          "name": "value",
          "type": "uint256"
        },
        {
          "internalType": "uint256",
          "name": "deadline",
          "type": "uint256"
        },
        {
          "internalType": "uint8",
          "name": "v",
          "type": "uint8"
        },
        {
          "internalType": "bytes32",
          "name": "r",
          "type": "bytes32"
        },
        {
          "internalType": "bytes32",
          "name": "s",
          "type": "bytes32"
        }
      ],
      "name": "permit",
      "outputs": [],
      "stateMutability": "nonpayable",
      "type": "function"
    },
    {
      "inputs": [],
      "name": "symbol",
      "outputs": [
        {
          "internalType": "string",
          "name": "",
          "type": "string"
        }
      ],
      "stateMutability": "view",
      "type": "function"
    },
    {
      "inputs": [],
      "name": "totalSupply",
      "outputs": [
        {
          "internalType": "uint256",
          "name": "",
          "type": "uint256"
        }
      ],
      "stateMutability": "view",
      "type": "function"
    },
    {
      "inputs": [
        {
          "internalType": "address",
          "name": "to",
          "type": "address"
        },
        {
          "internalType": "uint256",
          "name": "value",
          "type": "uint256"
        }
      ],
      "name": "transfer",
      "outputs": [
        {
          "internalType": "bool",
          "name": "",
          "type": "bool"
        }
      ],
      "stateMutability": "nonpayable",
      "type": "function"
    },
    {
      "inputs": [
        {
          "internalType": "address",
          "name": "from",
          "type": "address"
        },
        {
          "internalType": "address",
          "name": "to",
          "type": "address"
        },
        {
          "internalType": "uint256",
          "name": "value",
          "type": "uint256"
        }
      ],
      "name": "transferFrom",
      "outputs": [
        {
          "internalType": "bool",
          "name": "",
          "type": "bool"
        }
      ],
      "stateMutability": "nonpayable",
      "type": "function"
    }
  ],
  "bytecode": "0x61016060405234801561001157600080fd5b50604051612fae380380612fae833981016040819052610030916108c8565b6040805180820190915260018152603160f81b6020820152829081908184600361005a83826109b9565b50600461006782826109b9565b5061007791508390506005610144565b61012052610086816006610144565b61014052815160208084019190912060e052815190820120610100524660a05261011360e05161010051604080517f8b73c3c69bb8fe3d512ecc4cf759cc79239f7b179b0ffacaa9a75d522b39400f60208201529081019290925260608201524660808201523060a082015260009060c00160405160208183030381529060405280519060200120905090565b60805250503060c0525061013d3361012d6012600a610b6c565b610138906064610b78565b610177565b5050610c4a565b600060208351101561016057610159836101b6565b9050610171565b8161016b84826109b9565b5060ff90505b92915050565b6001600160a01b0382166101a65760405163ec442f0560e01b8152600060048201526024015b60405180910390fd5b6101b2600083836101f4565b5050565b600080829050601f815111156101e1578260405163305a27a960e01b815260040161019d9190610b8f565b80516101ec82610bc2565b179392505050565b6101ff838383610204565b505050565b61020f83838361026b565b6001600160a01b03831661026057600061022860025490565b90506001600160d01b038082111561025d57604051630e58ae9360e11b8152600481018390526024810182905260440161019d565b50505b6101ff838383610395565b6001600160a01b03831661029657806002600082825461028b9190610be6565b909155506103089050565b6001600160a01b038316600090815260208190526040902054818110156102e95760405163391434e360e21b81526001600160a01b0385166004820152602481018290526044810183905260640161019d565b6001600160a01b03841660009081526020819052604090209082900390555b6001600160a01b03821661032457600280548290039055610343565b6001600160a01b03821660009081526020819052604090208054820190555b816001600160a01b0316836001600160a01b03167fddf252ad1be2c89b69c2b068fc378daa952ba7f163c4a11628f55a4df523b3ef8360405161038891815260200190565b60405180910390a3505050565b6001600160a01b0383166103c3576103c0600a610ab761041e60201b176103bb84610431565b610469565b50505b6001600160a01b0382166103ec576103e9600a610ac361049f60201b176103bb84610431565b50505b6001600160a01b038381166000908152600860205260408082205485841683529120546101ff929182169116836104ab565b600061042a8284610bf9565b9392505050565b60006001600160d01b03821115610465576040516306dfcc6560e41b815260d060048201526024810183905260440161019d565b5090565b600080610492610477610600565b61048a6104838861060f565b868860201c565b879190610659565b915091505b935093915050565b600061042a8284610c18565b816001600160a01b0316836001600160a01b0316141580156104cd5750600081115b156101ff576001600160a01b03831615610567576001600160a01b038316600090815260096020908152604082208291610514919061049f901b610ac3176103bb86610431565b6001600160d01b031691506001600160d01b03169150846001600160a01b0316600080516020612f8e833981519152838360405161055c929190918252602082015260400190565b60405180910390a250505b6001600160a01b038216156101ff576001600160a01b0382166000908152600960209081526040822082916105a9919061041e901b610ab7176103bb86610431565b6001600160d01b031691506001600160d01b03169150836001600160a01b0316600080516020612f8e83398151915283836040516105f1929190918252602082015260400190565b60405180910390a25050505050565b600061060a610667565b905090565b805460009080156106505761063783610629600184610c37565b600091825260209091200190565b54660100000000000090046001600160d01b031661042a565b60009392505050565b600080610492858585610672565b600061060a436107d2565b82546000908190801561077457600061069087610629600185610c37565b805490915065ffffffffffff80821691660100000000000090046001600160d01b03169088168211156106d657604051632520601d60e01b815260040160405180910390fd5b8765ffffffffffff168265ffffffffffff160361071257825465ffffffffffff1666010000000000006001600160d01b03891602178355610766565b6040805180820190915265ffffffffffff808a1682526001600160d01b03808a1660208085019182528d54600181018f5560008f815291909120945191519092166601000000000000029216919091179101555b945085935061049792505050565b50506040805180820190915265ffffffffffff80851682526001600160d01b0380851660208085019182528854600181018a5560008a8152918220955192519093166601000000000000029190931617920191909155905081610497565b600065ffffffffffff821115610465576040516306dfcc6560e41b8152603060048201526024810183905260440161019d565b634e487b7160e01b600052604160045260246000fd5b60005b8381101561083657818101518382015260200161081e565b50506000910152565b600082601f83011261085057600080fd5b81516001600160401b0381111561086957610869610805565b604051601f8201601f19908116603f011681016001600160401b038111828210171561089757610897610805565b6040528181528382016020018510156108af57600080fd5b6108c082602083016020870161081b565b949350505050565b600080604083850312156108db57600080fd5b82516001600160401b038111156108f157600080fd5b6108fd8582860161083f565b602085015190935090506001600160401b0381111561091b57600080fd5b6109278582860161083f565b9150509250929050565b600181811c9082168061094557607f821691505b60208210810361096557634e487b7160e01b600052602260045260246000fd5b50919050565b601f8211156101ff57806000526020600020601f840160051c810160208510156109925750805b601f840160051c820191505b818110156109b2576000815560010161099e565b5050505050565b81516001600160401b038111156109d2576109d2610805565b6109e6816109e08454610931565b8461096b565b6020601f821160018114610a1a5760008315610a025750848201515b600019600385901b1c1916600184901b1784556109b2565b600084815260208120601f198516915b82811015610a4a5787850151825560209485019460019092019101610a2a565b5084821015610a685786840151600019600387901b60f8161c191681555b50505050600190811b01905550565b634e487b7160e01b600052601160045260246000fd5b6001815b600184111561049757808504811115610aac57610aac610a77565b6001841615610aba57908102905b60019390931c928002610a91565b600082610ad757506001610171565b81610ae457506000610171565b8160018114610afa5760028114610b0457610b20565b6001915050610171565b60ff841115610b1557610b15610a77565b50506001821b610171565b5060208310610133831016604e8410600b8410161715610b43575081810a610171565b610b506000198484610a8d565b8060001904821115610b6457610b64610a77565b029392505050565b600061042a8383610ac8565b808202811582820484141761017157610171610a77565b6020815260008251806020840152610bae81604085016020870161081b565b601f01601f19169190910160400192915050565b805160208083015191908110156109655760001960209190910360031b1b16919050565b8082018082111561017157610171610a77565b6001600160d01b03818116838216019081111561017157610171610a77565b6001600160d01b03828116828216039081111561017157610171610a77565b8181038181111561017157610171610a77565b60805160a05160c05160e0516101005161012051610140516122ea610ca46000396000610fd101526000610fa401526000610cca01526000610ca201526000610bfd01526000610c2701526000610c5101526122ea6000f3fe608060405234801561001057600080fd5b50600436106101985760003560e01c80637ecebe00116100e3578063a0712d681161008c578063d505accf11610066578063d505accf1461037d578063dd62ed3e14610390578063f1127ed8146103c957600080fd5b8063a0712d6814610344578063a9059cbb14610357578063c3cda5201461036a57600080fd5b806391ddadf4116100bd57806391ddadf41461030a57806395d89b41146103295780639ab24eb01461033157600080fd5b80637ecebe00146102c957806384b0196e146102dc5780638e539e8c146102f757600080fd5b80633a46b1a8116101455780635c19a95c1161011f5780635c19a95c146102795780636fcfff451461028e57806370a08231146102b657600080fd5b80633a46b1a81461021a5780634bf5d7e91461022d578063587cde1e1461023557600080fd5b806323b872dd1161017657806323b872dd146101f0578063313ce567146102035780633644e5151461021257600080fd5b806306fdde031461019d578063095ea7b3146101bb57806318160ddd146101de575b600080fd5b6101a5610408565b6040516101b29190611e8a565b60405180910390f35b6101ce6101c9366004611eb9565b61049a565b60405190151581526020016101b2565b6002545b6040519081526020016101b2565b6101ce6101fe366004611ee3565b6104b4565b604051601281526020016101b2565b6101e26104d8565b6101e2610228366004611eb9565b6104e7565b6101a56105ac565b610261610243366004611f20565b6001600160a01b039081166000908152600860205260409020541690565b6040516001600160a01b0390911681526020016101b2565b61028c610287366004611f20565b61063d565b005b6102a161029c366004611f20565b61064c565b60405163ffffffff90911681526020016101b2565b6101e26102c4366004611f20565b610657565b6101e26102d7366004611f20565b6106d8565b6102e46106e3565b6040516101b29796959493929190611f3b565b6101e2610305366004611fef565b610745565b6103126107af565b60405165ffffffffffff90911681526020016101b2565b6101a56107b9565b6101e261033f366004611f20565b6107c8565b61028c610352366004611fef565b6107f8565b6101ce610365366004611eb9565b610842565b61028c610378366004612019565b610850565b61028c61038b366004612071565b610926565b6101e261039e3660046120dc565b6001600160a01b03918216600090815260016020908152604080832093909416825291909152205490565b6103dc6103d736600461210f565b610a92565b60408051825165ffffffffffff1681526020928301516001600160d01b031692810192909252016101b2565b6060600380546104179061214f565b80601f01602080910402602001604051908101604052809291908181526020018280546104439061214f565b80156104905780601f1061046557610100808354040283529160200191610490565b820191906000526020600020905b81548152906001019060200180831161047357829003601f168201915b5050505050905090565b6000336104a8818585610acf565b60019150505b92915050565b6000336104c2858285610ae1565b6104cd858585610b78565b506001949350505050565b60006104e2610bf0565b905090565b60006105276040518060400160405280601281526020017f566f7465732d67657450617374566f7465730000000000000000000000000000815250610d1b565b60006105316107af565b90508065ffffffffffff16831061057157604051637669fc0f60e11b81526004810184905265ffffffffffff821660248201526044015b60405180910390fd5b61059b61057d84610d7a565b6001600160a01b038616600090815260096020526040902090610db1565b6001600160d01b0316949350505050565b60606105b6610e6a565b65ffffffffffff166105c66107af565b65ffffffffffff1614610605576040517f6ff0714000000000000000000000000000000000000000000000000000000000815260040160405180910390fd5b5060408051808201909152601d81527f6d6f64653d626c6f636b6e756d6265722666726f6d3d64656661756c74000000602082015290565b336106488183610e75565b5050565b60006104ae82610eff565b60006106bc6040518060400160405280601581526020017f45524332305f62616c616e63654f6628295f3131310000000000000000000000815250600080856001600160a01b03166001600160a01b0316815260200190815260200160002054610f21565b506001600160a01b031660009081526020819052604090205490565b60006104ae82610f7f565b6000606080600080600060606106f7610f9d565b6106ff610fca565b604080516000808252602082019092527f0f000000000000000000000000000000000000000000000000000000000000009b939a50919850469750309650945092509050565b6000806107506107af565b90508065ffffffffffff16831061078b57604051637669fc0f60e11b81526004810184905265ffffffffffff82166024820152604401610568565b61079f61079784610d7a565b600a90610db1565b6001600160d01b03169392505050565b60006104e2610e6a565b6060600480546104179061214f565b6001600160a01b03811660009081526009602052604081206107e990610ff7565b6001600160d01b031692915050565b6108376040518060400160405280601c81526020017f6b6f6b6f546f6b656e2d6d696e7428292d6d73672e73656e6465723a0000000081525033611033565b336106488183611091565b6000336104a8818585610b78565b8342111561088d576040517f4683af0e00000000000000000000000000000000000000000000000000000000815260048101859052602401610568565b604080517fe48329057bfd03d55e49b547132e39cffd9c1820ad7b9d4c5307691425d15adf60208201526001600160a01b038816918101919091526060810186905260808101859052600090610907906108ff9060a001604051602081830303815290604052805190602001206110c7565b85858561110f565b9050610913818761113d565b61091d8188610e75565b50505050505050565b83421115610963576040517f6279130200000000000000000000000000000000000000000000000000000000815260048101859052602401610568565b60007f6e71edae12b1b97f4d1f60370fef10105fa2faae0126114a169c64845d6126c98888886109b08c6001600160a01b0316600090815260076020526040902080546001810190915590565b6040805160208101969096526001600160a01b0394851690860152929091166060840152608083015260a082015260c0810186905260e0016040516020818303038152906040528051906020012090506000610a0b826110c7565b90506000610a1b8287878761110f565b9050896001600160a01b0316816001600160a01b031614610a7b576040517f4b800e460000000000000000000000000000000000000000000000000000000081526001600160a01b0380831660048301528b166024820152604401610568565b610a868a8a8a610acf565b50505050505050505050565b6040805180820190915260008082526020820152610ab083836111a9565b9392505050565b6000610ab0828461219f565b6000610ab082846121be565b610adc83838360016111df565b505050565b6001600160a01b038381166000908152600160209081526040808320938616835292905220546000198114610b725781811015610b63576040517ffb8f41b20000000000000000000000000000000000000000000000000000000081526001600160a01b03841660048201526024810182905260448101839052606401610568565b610b72848484840360006111df565b50505050565b6001600160a01b038316610bbb576040517f96c6fd1e00000000000000000000000000000000000000000000000000000000815260006004820152602401610568565b6001600160a01b038216610be55760405163ec442f0560e01b815260006004820152602401610568565b610adc8383836112e6565b6000306001600160a01b037f000000000000000000000000000000000000000000000000000000000000000016148015610c4957507f000000000000000000000000000000000000000000000000000000000000000046145b15610c7357507f000000000000000000000000000000000000000000000000000000000000000090565b6104e2604080517f8b73c3c69bb8fe3d512ecc4cf759cc79239f7b179b0ffacaa9a75d522b39400f60208201527f0000000000000000000000000000000000000000000000000000000000000000918101919091527f000000000000000000000000000000000000000000000000000000000000000060608201524660808201523060a082015260009060c00160405160208183030381529060405280519060200120905090565b610d7781604051602401610d2f9190611e8a565b60408051601f198184030181529190526020810180516001600160e01b03167f41304fac000000000000000000000000000000000000000000000000000000001790526112f1565b50565b600065ffffffffffff821115610dad576040516306dfcc6560e41b81526030600482015260248101839052604401610568565b5090565b815460009081816005811115610e10576000610dcc846112fa565b610dd690856121dd565b60008881526020902090915081015465ffffffffffff9081169087161015610e0057809150610e0e565b610e0b8160016121f0565b92505b505b6000610e1e87878585611460565b90508015610e5c57610e4387610e356001846121dd565b600091825260209091200190565b54660100000000000090046001600160d01b0316610e5f565b60005b979650505050505050565b60006104e243610d7a565b6001600160a01b0382811660008181526008602052604080822080548686167fffffffffffffffffffffffff0000000000000000000000000000000000000000821681179092559151919094169392849290917f3134e8a2e6d97e929a7e54011ea5485d7d196dd5f0ba4d4ef95803e8e3fc257f9190a4610adc8183610efa866114c2565b6114cd565b6001600160a01b0381166000908152600960205260408120546104ae90611639565b6106488282604051602401610f37929190612203565b60408051601f198184030181529190526020810180516001600160e01b03167fb60e72cc000000000000000000000000000000000000000000000000000000001790526112f1565b6001600160a01b0381166000908152600760205260408120546104ae565b60606104e27f0000000000000000000000000000000000000000000000000000000000000000600561166a565b60606104e27f0000000000000000000000000000000000000000000000000000000000000000600661166a565b8054600090801561102a5761101183610e356001846121dd565b54660100000000000090046001600160d01b0316610ab0565b60009392505050565b6106488282604051602401611049929190612225565b60408051601f198184030181529190526020810180516001600160e01b03167f319af333000000000000000000000000000000000000000000000000000000001790526112f1565b6001600160a01b0382166110bb5760405163ec442f0560e01b815260006004820152602401610568565b610648600083836112e6565b60006104ae6110d4610bf0565b836040517f19010000000000000000000000000000000000000000000000000000000000008152600281019290925260228201526042902090565b60008060008061112188888888611715565b92509250925061113182826117e4565b50909695505050505050565b6001600160a01b0382166000908152600760205260409020805460018101909155818114610adc576040517f752d88c00000000000000000000000000000000000000000000000000000000081526001600160a01b038416600482015260248101829052604401610568565b60408051808201909152600080825260208201526001600160a01b0383166000908152600960205260409020610ab090836118e8565b6001600160a01b038416611222576040517fe602df0500000000000000000000000000000000000000000000000000000000815260006004820152602401610568565b6001600160a01b038316611265576040517f94280d6200000000000000000000000000000000000000000000000000000000815260006004820152602401610568565b6001600160a01b0380851660009081526001602090815260408083209387168352929052208290558015610b7257826001600160a01b0316846001600160a01b03167f8c5be1e5ebec7d5bd14f71427d1e84f3dd0314c0f7b2291e5b200ac8c7c3b925846040516112d891815260200190565b60405180910390a350505050565b610adc83838361195b565b610d77816119db565b600060018211611308575090565b816001700100000000000000000000000000000000821061132e5760809190911c9060401b5b6801000000000000000082106113495760409190911c9060201b5b64010000000082106113605760209190911c9060101b5b6201000082106113755760109190911c9060081b5b61010082106113895760089190911c9060041b5b6010821061139c5760049190911c9060021b5b600482106113a85760011b5b600302600190811c908185816113c0576113c0612250565b048201901c905060018185816113d8576113d8612250565b048201901c905060018185816113f0576113f0612250565b048201901c9050600181858161140857611408612250565b048201901c9050600181858161142057611420612250565b048201901c9050600181858161143857611438612250565b048201901c905061145781858161145157611451612250565b04821190565b90039392505050565b60005b818310156114ba57600061147784846119fc565b60008781526020902090915065ffffffffffff86169082015465ffffffffffff1611156114a6578092506114b4565b6114b18160016121f0565b93505b50611463565b509392505050565b60006104ae82610657565b816001600160a01b0316836001600160a01b0316141580156114ef5750600081115b15610adc576001600160a01b03831615611597576001600160a01b0383166000908152600960205260408120819061153290610ac361152d86611a17565b611a4b565b6001600160d01b031691506001600160d01b03169150846001600160a01b03167fdec2bacdd2f05b59de34da9b523dff8be42e5e38e818c82fdb0bae774387a724838360405161158c929190918252602082015260400190565b60405180910390a250505b6001600160a01b03821615610adc576001600160a01b038216600090815260096020526040812081906115d090610ab761152d86611a17565b6001600160d01b031691506001600160d01b03169150836001600160a01b03167fdec2bacdd2f05b59de34da9b523dff8be42e5e38e818c82fdb0bae774387a724838360405161162a929190918252602082015260400190565b60405180910390a25050505050565b600063ffffffff821115610dad576040516306dfcc6560e41b81526020600482015260248101839052604401610568565b606060ff83146116845761167d83611a84565b90506104ae565b8180546116909061214f565b80601f01602080910402602001604051908101604052809291908181526020018280546116bc9061214f565b80156117095780601f106116de57610100808354040283529160200191611709565b820191906000526020600020905b8154815290600101906020018083116116ec57829003601f168201915b505050505090506104ae565b600080807f7fffffffffffffffffffffffffffffff5d576e7357a4501ddfe92f46681b20a084111561175057506000915060039050826117da565b604080516000808252602082018084528a905260ff891692820192909252606081018790526080810186905260019060a0016020604051602081039080840390855afa1580156117a4573d6000803e3d6000fd5b5050604051601f1901519150506001600160a01b0381166117d0575060009250600191508290506117da565b9250600091508190505b9450945094915050565b60008260038111156117f8576117f8612266565b03611801575050565b600182600381111561181557611815612266565b0361184c576040517ff645eedf00000000000000000000000000000000000000000000000000000000815260040160405180910390fd5b600282600381111561186057611860612266565b0361189a576040517ffce698f700000000000000000000000000000000000000000000000000000000815260048101829052602401610568565b60038260038111156118ae576118ae612266565b03610648576040517fd78bce0c00000000000000000000000000000000000000000000000000000000815260048101829052602401610568565b6040805180820190915260008082526020820152826000018263ffffffff16815481106119175761191761227c565b60009182526020918290206040805180820190915291015465ffffffffffff81168252660100000000000090046001600160d01b0316918101919091529392505050565b611966838383611ac3565b6001600160a01b0383166119d057600061197f60025490565b90506001600160d01b03808211156119cd576040517f1cb15d260000000000000000000000000000000000000000000000000000000081526004810183905260248101829052604401610568565b50505b610adc838383611c06565b60006a636f6e736f6c652e6c6f679050600080835160208501845afa505050565b6000611a0b6002848418612292565b610ab0908484166121f0565b60006001600160d01b03821115610dad576040516306dfcc6560e41b815260d0600482015260248101839052604401610568565b600080611a77611a596107af565b611a6f611a6588610ff7565b868863ffffffff16565b879190611c7c565b915091505b935093915050565b60606000611a9183611c8a565b604080516020808252818301909252919250600091906020820181803683375050509182525060208101929092525090565b6001600160a01b038316611aee578060026000828254611ae391906121f0565b90915550611b799050565b6001600160a01b03831660009081526020819052604090205481811015611b5a576040517fe450d38c0000000000000000000000000000000000000000000000000000000081526001600160a01b03851660048201526024810182905260448101839052606401610568565b6001600160a01b03841660009081526020819052604090209082900390555b6001600160a01b038216611b9557600280548290039055611bb4565b6001600160a01b03821660009081526020819052604090208054820190555b816001600160a01b0316836001600160a01b03167fddf252ad1be2c89b69c2b068fc378daa952ba7f163c4a11628f55a4df523b3ef83604051611bf991815260200190565b60405180910390a3505050565b6001600160a01b038316611c2857611c25600a610ab761152d84611a17565b50505b6001600160a01b038216611c4a57611c47600a610ac361152d84611a17565b50505b6001600160a01b03838116600090815260086020526040808220548584168352912054610adc929182169116836114cd565b600080611a77858585611ccb565b600060ff8216601f8111156104ae576040517fb3512b0c00000000000000000000000000000000000000000000000000000000815260040160405180910390fd5b825460009081908015611de6576000611ce987610e356001856121dd565b805490915065ffffffffffff80821691660100000000000090046001600160d01b0316908816821115611d48576040517f2520601d00000000000000000000000000000000000000000000000000000000815260040160405180910390fd5b8765ffffffffffff168265ffffffffffff1603611d8457825465ffffffffffff1666010000000000006001600160d01b03891602178355611dd8565b6040805180820190915265ffffffffffff808a1682526001600160d01b03808a1660208085019182528d54600181018f5560008f815291909120945191519092166601000000000000029216919091179101555b9450859350611a7c92505050565b50506040805180820190915265ffffffffffff80851682526001600160d01b0380851660208085019182528854600181018a5560008a8152918220955192519093166601000000000000029190931617920191909155905081611a7c565b6000815180845260005b81811015611e6a57602081850181015186830182015201611e4e565b506000602082860101526020601f19601f83011685010191505092915050565b602081526000610ab06020830184611e44565b80356001600160a01b0381168114611eb457600080fd5b919050565b60008060408385031215611ecc57600080fd5b611ed583611e9d565b946020939093013593505050565b600080600060608486031215611ef857600080fd5b611f0184611e9d565b9250611f0f60208501611e9d565b929592945050506040919091013590565b600060208284031215611f3257600080fd5b610ab082611e9d565b7fff000000000000000000000000000000000000000000000000000000000000008816815260e060208201526000611f7660e0830189611e44565b8281036040840152611f888189611e44565b606084018890526001600160a01b038716608085015260a0840186905283810360c08501528451808252602080870193509091019060005b81811015611fde578351835260209384019390920191600101611fc0565b50909b9a5050505050505050505050565b60006020828403121561200157600080fd5b5035919050565b803560ff81168114611eb457600080fd5b60008060008060008060c0878903121561203257600080fd5b61203b87611e9d565b9550602087013594506040870135935061205760608801612008565b9598949750929560808101359460a0909101359350915050565b600080600080600080600060e0888a03121561208c57600080fd5b61209588611e9d565b96506120a360208901611e9d565b955060408801359450606088013593506120bf60808901612008565b9699959850939692959460a0840135945060c09093013592915050565b600080604083850312156120ef57600080fd5b6120f883611e9d565b915061210660208401611e9d565b90509250929050565b6000806040838503121561212257600080fd5b61212b83611e9d565b9150602083013563ffffffff8116811461214457600080fd5b809150509250929050565b600181811c9082168061216357607f821691505b60208210810361218357634e487b7160e01b600052602260045260246000fd5b50919050565b634e487b7160e01b600052601160045260246000fd5b6001600160d01b0381811683821601908111156104ae576104ae612189565b6001600160d01b0382811682821603908111156104ae576104ae612189565b818103818111156104ae576104ae612189565b808201808211156104ae576104ae612189565b6040815260006122166040830185611e44565b90508260208301529392505050565b6040815260006122386040830185611e44565b90506001600160a01b03831660208301529392505050565b634e487b7160e01b600052601260045260246000fd5b634e487b7160e01b600052602160045260246000fd5b634e487b7160e01b600052603260045260246000fd5b6000826122af57634e487b7160e01b600052601260045260246000fd5b50049056fea26469706673582212207b4d50b6304f3cb5d177530d69d7d5d034732b3ddc3488d021ae8add7382a52d64736f6c634300081b0033dec2bacdd2f05b59de34da9b523dff8be42e5e38e818c82fdb0bae774387a724",
  "linkReferences": {},
  "deployedLinkReferences": {}
}