{
  "_format": "hh-sol-artifact-1",
  "contractName": "TimeLock",
  "sourceName": "contracts/TimeLock.sol",
  "abi": [
    {
      "inputs": [
        {
          "internalType": "uint256",
          "name": "minDelay",
          "type": "uint256"
        },
        {
          "internalType": "address[]",
          "name": "proposers",
          "type": "address[]"
        },
        {
          "internalType": "address[]",
          "name": "executors",
          "type": "address[]"
        },
        {
          "internalType": "address",
          "name": "admin",
          "type": "address"
        }
      ],
      "stateMutability": "nonpayable",
      "type": "constructor"
    },
    {
      "inputs": [],
      "name": "AccessControlBadConfirmation",
      "type": "error"
    },
    {
      "inputs": [
        {
          "internalType": "address",
          "name": "account",
          "type": "address"
        },
        {
          "internalType": "bytes32",
          "name": "neededRole",
          "type": "bytes32"
        }
      ],
      "name": "AccessControlUnauthorizedAccount",
      "type": "error"
    },
    {
      "inputs": [],
      "name": "FailedCall",
      "type": "error"
    },
    {
      "inputs": [
        {
          "internalType": "uint256",
          "name": "delay",
          "type": "uint256"
        },
        {
          "internalType": "uint256",
          "name": "minDelay",
          "type": "uint256"
        }
      ],
      "name": "TimelockInsufficientDelay",
      "type": "error"
    },
    {
      "inputs": [
        {
          "internalType": "uint256",
          "name": "targets",
          "type": "uint256"
        },
        {
          "internalType": "uint256",
          "name": "payloads",
          "type": "uint256"
        },
        {
          "internalType": "uint256",
          "name": "values",
          "type": "uint256"
        }
      ],
      "name": "TimelockInvalidOperationLength",
      "type": "error"
    },
    {
      "inputs": [
        {
          "internalType": "address",
          "name": "caller",
          "type": "address"
        }
      ],
      "name": "TimelockUnauthorizedCaller",
      "type": "error"
    },
    {
      "inputs": [
        {
          "internalType": "bytes32",
          "name": "predecessorId",
          "type": "bytes32"
        }
      ],
      "name": "TimelockUnexecutedPredecessor",
      "type": "error"
    },
    {
      "inputs": [
        {
          "internalType": "bytes32",
          "name": "operationId",
          "type": "bytes32"
        },
        {
          "internalType": "bytes32",
          "name": "expectedStates",
          "type": "bytes32"
        }
      ],
      "name": "TimelockUnexpectedOperationState",
      "type": "error"
    },
    {
      "anonymous": false,
      "inputs": [
        {
          "indexed": true,
          "internalType": "bytes32",
          "name": "id",
          "type": "bytes32"
        },
        {
          "indexed": true,
          "internalType": "uint256",
          "name": "index",
          "type": "uint256"
        },
        {
          "indexed": false,
          "internalType": "address",
          "name": "target",
          "type": "address"
        },
        {
          "indexed": false,
          "internalType": "uint256",
          "name": "value",
          "type": "uint256"
        },
        {
          "indexed": false,
          "internalType": "bytes",
          "name": "data",
          "type": "bytes"
        }
      ],
      "name": "CallExecuted",
      "type": "event"
    },
    {
      "anonymous": false,
      "inputs": [
        {
          "indexed": true,
          "internalType": "bytes32",
          "name": "id",
          "type": "bytes32"
        },
        {
          "indexed": false,
          "internalType": "bytes32",
          "name": "salt",
          "type": "bytes32"
        }
      ],
      "name": "CallSalt",
      "type": "event"
    },
    {
      "anonymous": false,
      "inputs": [
        {
          "indexed": true,
          "internalType": "bytes32",
          "name": "id",
          "type": "bytes32"
        },
        {
          "indexed": true,
          "internalType": "uint256",
          "name": "index",
          "type": "uint256"
        },
        {
          "indexed": false,
          "internalType": "address",
          "name": "target",
          "type": "address"
        },
        {
          "indexed": false,
          "internalType": "uint256",
          "name": "value",
          "type": "uint256"
        },
        {
          "indexed": false,
          "internalType": "bytes",
          "name": "data",
          "type": "bytes"
        },
        {
          "indexed": false,
          "internalType": "bytes32",
          "name": "predecessor",
          "type": "bytes32"
        },
        {
          "indexed": false,
          "internalType": "uint256",
          "name": "delay",
          "type": "uint256"
        }
      ],
      "name": "CallScheduled",
      "type": "event"
    },
    {
      "anonymous": false,
      "inputs": [
        {
          "indexed": true,
          "internalType": "bytes32",
          "name": "id",
          "type": "bytes32"
        }
      ],
      "name": "Cancelled",
      "type": "event"
    },
    {
      "anonymous": false,
      "inputs": [
        {
          "indexed": false,
          "internalType": "uint256",
          "name": "oldDuration",
          "type": "uint256"
        },
        {
          "indexed": false,
          "internalType": "uint256",
          "name": "newDuration",
          "type": "uint256"
        }
      ],
      "name": "MinDelayChange",
      "type": "event"
    },
    {
      "anonymous": false,
      "inputs": [
        {
          "indexed": true,
          "internalType": "bytes32",
          "name": "role",
          "type": "bytes32"
        },
        {
          "indexed": true,
          "internalType": "bytes32",
          "name": "previousAdminRole",
          "type": "bytes32"
        },
        {
          "indexed": true,
          "internalType": "bytes32",
          "name": "newAdminRole",
          "type": "bytes32"
        }
      ],
      "name": "RoleAdminChanged",
      "type": "event"
    },
    {
      "anonymous": false,
      "inputs": [
        {
          "indexed": true,
          "internalType": "bytes32",
          "name": "role",
          "type": "bytes32"
        },
        {
          "indexed": true,
          "internalType": "address",
          "name": "account",
          "type": "address"
        },
        {
          "indexed": true,
          "internalType": "address",
          "name": "sender",
          "type": "address"
        }
      ],
      "name": "RoleGranted",
      "type": "event"
    },
    {
      "anonymous": false,
      "inputs": [
        {
          "indexed": true,
          "internalType": "bytes32",
          "name": "role",
          "type": "bytes32"
        },
        {
          "indexed": true,
          "internalType": "address",
          "name": "account",
          "type": "address"
        },
        {
          "indexed": true,
          "internalType": "address",
          "name": "sender",
          "type": "address"
        }
      ],
      "name": "RoleRevoked",
      "type": "event"
    },
    {
      "inputs": [],
      "name": "CANCELLER_ROLE",
      "outputs": [
        {
          "internalType": "bytes32",
          "name": "",
          "type": "bytes32"
        }
      ],
      "stateMutability": "view",
      "type": "function"
    },
    {
      "inputs": [],
      "name": "DEFAULT_ADMIN_ROLE",
      "outputs": [
        {
          "internalType": "bytes32",
          "name": "",
          "type": "bytes32"
        }
      ],
      "stateMutability": "view",
      "type": "function"
    },
    {
      "inputs": [],
      "name": "EXECUTOR_ROLE",
      "outputs": [
        {
          "internalType": "bytes32",
          "name": "",
          "type": "bytes32"
        }
      ],
      "stateMutability": "view",
      "type": "function"
    },
    {
      "inputs": [],
      "name": "PROPOSER_ROLE",
      "outputs": [
        {
          "internalType": "bytes32",
          "name": "",
          "type": "bytes32"
        }
      ],
      "stateMutability": "view",
      "type": "function"
    },
    {
      "inputs": [
        {
          "internalType": "bytes32",
          "name": "id",
          "type": "bytes32"
        }
      ],
      "name": "cancel",
      "outputs": [],
      "stateMutability": "nonpayable",
      "type": "function"
    },
    {
      "inputs": [
        {
          "internalType": "address",
          "name": "target",
          "type": "address"
        },
        {
          "internalType": "uint256",
          "name": "value",
          "type": "uint256"
        },
        {
          "internalType": "bytes",
          "name": "payload",
          "type": "bytes"
        },
        {
          "internalType": "bytes32",
          "name": "predecessor",
          "type": "bytes32"
        },
        {
          "internalType": "bytes32",
          "name": "salt",
          "type": "bytes32"
        }
      ],
      "name": "execute",
      "outputs": [],
      "stateMutability": "payable",
      "type": "function"
    },
    {
      "inputs": [
        {
          "internalType": "address[]",
          "name": "targets",
          "type": "address[]"
        },
        {
          "internalType": "uint256[]",
          "name": "values",
          "type": "uint256[]"
        },
        {
          "internalType": "bytes[]",
          "name": "payloads",
          "type": "bytes[]"
        },
        {
          "internalType": "bytes32",
          "name": "predecessor",
          "type": "bytes32"
        },
        {
          "internalType": "bytes32",
          "name": "salt",
          "type": "bytes32"
        }
      ],
      "name": "executeBatch",
      "outputs": [],
      "stateMutability": "payable",
      "type": "function"
    },
    {
      "inputs": [],
      "name": "getMinDelay",
      "outputs": [
        {
          "internalType": "uint256",
          "name": "",
          "type": "uint256"
        }
      ],
      "stateMutability": "view",
      "type": "function"
    },
    {
      "inputs": [
        {
          "internalType": "bytes32",
          "name": "id",
          "type": "bytes32"
        }
      ],
      "name": "getOperationState",
      "outputs": [
        {
          "internalType": "enum TimelockController.OperationState",
          "name": "",
          "type": "uint8"
        }
      ],
      "stateMutability": "view",
      "type": "function"
    },
    {
      "inputs": [
        {
          "internalType": "bytes32",
          "name": "role",
          "type": "bytes32"
        }
      ],
      "name": "getRoleAdmin",
      "outputs": [
        {
          "internalType": "bytes32",
          "name": "",
          "type": "bytes32"
        }
      ],
      "stateMutability": "view",
      "type": "function"
    },
    {
      "inputs": [
        {
          "internalType": "bytes32",
          "name": "id",
          "type": "bytes32"
        }
      ],
      "name": "getTimestamp",
      "outputs": [
        {
          "internalType": "uint256",
          "name": "",
          "type": "uint256"
        }
      ],
      "stateMutability": "view",
      "type": "function"
    },
    {
      "inputs": [
        {
          "internalType": "bytes32",
          "name": "role",
          "type": "bytes32"
        },
        {
          "internalType": "address",
          "name": "account",
          "type": "address"
        }
      ],
      "name": "grantRole",
      "outputs": [],
      "stateMutability": "nonpayable",
      "type": "function"
    },
    {
      "inputs": [
        {
          "internalType": "bytes32",
          "name": "role",
          "type": "bytes32"
        },
        {
          "internalType": "address",
          "name": "account",
          "type": "address"
        }
      ],
      "name": "hasRole",
      "outputs": [
        {
          "internalType": "bool",
          "name": "",
          "type": "bool"
        }
      ],
      "stateMutability": "view",
      "type": "function"
    },
    {
      "inputs": [
        {
          "internalType": "address",
          "name": "target",
          "type": "address"
        },
        {
          "internalType": "uint256",
          "name": "value",
          "type": "uint256"
        },
        {
          "internalType": "bytes",
          "name": "data",
          "type": "bytes"
        },
        {
          "internalType": "bytes32",
          "name": "predecessor",
          "type": "bytes32"
        },
        {
          "internalType": "bytes32",
          "name": "salt",
          "type": "bytes32"
        }
      ],
      "name": "hashOperation",
      "outputs": [
        {
          "internalType": "bytes32",
          "name": "",
          "type": "bytes32"
        }
      ],
      "stateMutability": "pure",
      "type": "function"
    },
    {
      "inputs": [
        {
          "internalType": "address[]",
          "name": "targets",
          "type": "address[]"
        },
        {
          "internalType": "uint256[]",
          "name": "values",
          "type": "uint256[]"
        },
        {
          "internalType": "bytes[]",
          "name": "payloads",
          "type": "bytes[]"
        },
        {
          "internalType": "bytes32",
          "name": "predecessor",
          "type": "bytes32"
        },
        {
          "internalType": "bytes32",
          "name": "salt",
          "type": "bytes32"
        }
      ],
      "name": "hashOperationBatch",
      "outputs": [
        {
          "internalType": "bytes32",
          "name": "",
          "type": "bytes32"
        }
      ],
      "stateMutability": "pure",
      "type": "function"
    },
    {
      "inputs": [
        {
          "internalType": "bytes32",
          "name": "id",
          "type": "bytes32"
        }
      ],
      "name": "isOperation",
      "outputs": [
        {
          "internalType": "bool",
          "name": "",
          "type": "bool"
        }
      ],
      "stateMutability": "view",
      "type": "function"
    },
    {
      "inputs": [
        {
          "internalType": "bytes32",
          "name": "id",
          "type": "bytes32"
        }
      ],
      "name": "isOperationDone",
      "outputs": [
        {
          "internalType": "bool",
          "name": "",
          "type": "bool"
        }
      ],
      "stateMutability": "view",
      "type": "function"
    },
    {
      "inputs": [
        {
          "internalType": "bytes32",
          "name": "id",
          "type": "bytes32"
        }
      ],
      "name": "isOperationPending",
      "outputs": [
        {
          "internalType": "bool",
          "name": "",
          "type": "bool"
        }
      ],
      "stateMutability": "view",
      "type": "function"
    },
    {
      "inputs": [
        {
          "internalType": "bytes32",
          "name": "id",
          "type": "bytes32"
        }
      ],
      "name": "isOperationReady",
      "outputs": [
        {
          "internalType": "bool",
          "name": "",
          "type": "bool"
        }
      ],
      "stateMutability": "view",
      "type": "function"
    },
    {
      "inputs": [
        {
          "internalType": "address",
          "name": "",
          "type": "address"
        },
        {
          "internalType": "address",
          "name": "",
          "type": "address"
        },
        {
          "internalType": "uint256[]",
          "name": "",
          "type": "uint256[]"
        },
        {
          "internalType": "uint256[]",
          "name": "",
          "type": "uint256[]"
        },
        {
          "internalType": "bytes",
          "name": "",
          "type": "bytes"
        }
      ],
      "name": "onERC1155BatchReceived",
      "outputs": [
        {
          "internalType": "bytes4",
          "name": "",
          "type": "bytes4"
        }
      ],
      "stateMutability": "nonpayable",
      "type": "function"
    },
    {
      "inputs": [
        {
          "internalType": "address",
          "name": "",
          "type": "address"
        },
        {
          "internalType": "address",
          "name": "",
          "type": "address"
        },
        {
          "internalType": "uint256",
          "name": "",
          "type": "uint256"
        },
        {
          "internalType": "uint256",
          "name": "",
          "type": "uint256"
        },
        {
          "internalType": "bytes",
          "name": "",
          "type": "bytes"
        }
      ],
      "name": "onERC1155Received",
      "outputs": [
        {
          "internalType": "bytes4",
          "name": "",
          "type": "bytes4"
        }
      ],
      "stateMutability": "nonpayable",
      "type": "function"
    },
    {
      "inputs": [
        {
          "internalType": "address",
          "name": "",
          "type": "address"
        },
        {
          "internalType": "address",
          "name": "",
          "type": "address"
        },
        {
          "internalType": "uint256",
          "name": "",
          "type": "uint256"
        },
        {
          "internalType": "bytes",
          "name": "",
          "type": "bytes"
        }
      ],
      "name": "onERC721Received",
      "outputs": [
        {
          "internalType": "bytes4",
          "name": "",
          "type": "bytes4"
        }
      ],
      "stateMutability": "nonpayable",
      "type": "function"
    },
    {
      "inputs": [
        {
          "internalType": "bytes32",
          "name": "role",
          "type": "bytes32"
        },
        {
          "internalType": "address",
          "name": "callerConfirmation",
          "type": "address"
        }
      ],
      "name": "renounceRole",
      "outputs": [],
      "stateMutability": "nonpayable",
      "type": "function"
    },
    {
      "inputs": [
        {
          "internalType": "bytes32",
          "name": "role",
          "type": "bytes32"
        },
        {
          "internalType": "address",
          "name": "account",
          "type": "address"
        }
      ],
      "name": "revokeRole",
      "outputs": [],
      "stateMutability": "nonpayable",
      "type": "function"
    },
    {
      "inputs": [
        {
          "internalType": "address",
          "name": "target",
          "type": "address"
        },
        {
          "internalType": "uint256",
          "name": "value",
          "type": "uint256"
        },
        {
          "internalType": "bytes",
          "name": "data",
          "type": "bytes"
        },
        {
          "internalType": "bytes32",
          "name": "predecessor",
          "type": "bytes32"
        },
        {
          "internalType": "bytes32",
          "name": "salt",
          "type": "bytes32"
        },
        {
          "internalType": "uint256",
          "name": "delay",
          "type": "uint256"
        }
      ],
      "name": "schedule",
      "outputs": [],
      "stateMutability": "nonpayable",
      "type": "function"
    },
    {
      "inputs": [
        {
          "internalType": "address[]",
          "name": "targets",
          "type": "address[]"
        },
        {
          "internalType": "uint256[]",
          "name": "values",
          "type": "uint256[]"
        },
        {
          "internalType": "bytes[]",
          "name": "payloads",
          "type": "bytes[]"
        },
        {
          "internalType": "bytes32",
          "name": "predecessor",
          "type": "bytes32"
        },
        {
          "internalType": "bytes32",
          "name": "salt",
          "type": "bytes32"
        },
        {
          "internalType": "uint256",
          "name": "delay",
          "type": "uint256"
        }
      ],
      "name": "scheduleBatch",
      "outputs": [],
      "stateMutability": "nonpayable",
      "type": "function"
    },
    {
      "inputs": [
        {
          "internalType": "bytes4",
          "name": "interfaceId",
          "type": "bytes4"
        }
      ],
      "name": "supportsInterface",
      "outputs": [
        {
          "internalType": "bool",
          "name": "",
          "type": "bool"
        }
      ],
      "stateMutability": "view",
      "type": "function"
    },
    {
      "inputs": [
        {
          "internalType": "uint256",
          "name": "newDelay",
          "type": "uint256"
        }
      ],
      "name": "updateDelay",
      "outputs": [],
      "stateMutability": "nonpayable",
      "type": "function"
    },
    {
      "stateMutability": "payable",
      "type": "receive"
    }
  ],
  "bytecode": "0x608060405234801561001057600080fd5b5060405161253538038061253583398101604081905261002f9161030d565b8383838361003e600030610189565b506001600160a01b0381161561005b57610059600082610189565b505b60005b83518110156100f0576100b07fb09aa5aeb3702cfd50b6b62bc4532604938f21248a27a1d5ca736082b6819cc185838151811061009d5761009d610391565b602002602001015161018960201b60201c565b506100e77ffd643c72710c63c0180259aba6b2d05451e3591a24e58b62239378085726f78385838151811061009d5761009d610391565b5060010161005e565b5060005b825181101561013c576101337fd8aa0f3194971a2a116679f7c2090f6939c8d4e01a2a8d7e41d55e5351469e6384838151811061009d5761009d610391565b506001016100f4565b5060028490556040805160008152602081018690527f11c24f4ead16507c69ac467fbd5e4eed5fb5c699626d2cc6d66421df253886d5910160405180910390a150505050505050506103a7565b6000828152602081815260408083206001600160a01b038516845290915281205460ff1661022b576000838152602081815260408083206001600160a01b03861684529091529020805460ff191660011790556101e33390565b6001600160a01b0316826001600160a01b0316847f2f8788117e7eff1d82e926ec794901d17c78024a50270940304540a733656f0d60405160405180910390a450600161022f565b5060005b92915050565b634e487b7160e01b600052604160045260246000fd5b80516001600160a01b038116811461026257600080fd5b919050565b600082601f83011261027857600080fd5b81516001600160401b0381111561029157610291610235565b604051600582901b90603f8201601f191681016001600160401b03811182821017156102bf576102bf610235565b6040529182526020818501810192908101868411156102dd57600080fd5b6020860192505b83831015610303576102f58361024b565b8152602092830192016102e4565b5095945050505050565b6000806000806080858703121561032357600080fd5b845160208601519094506001600160401b0381111561034157600080fd5b61034d87828801610267565b604087015190945090506001600160401b0381111561036b57600080fd5b61037787828801610267565b9250506103866060860161024b565b905092959194509250565b634e487b7160e01b600052603260045260246000fd5b61217f806103b66000396000f3fe6080604052600436106101bb5760003560e01c80638065657f116100ec578063bc197c811161008a578063d547741f11610064578063d547741f146105c0578063e38335e5146105e0578063f23a6e61146105f3578063f27a0c921461063857600080fd5b8063bc197c811461052e578063c4d252f514610573578063d45c44351461059357600080fd5b806391d14854116100c657806391d1485414610481578063a217fddf146104c5578063b08e51c0146104da578063b1c5f4271461050e57600080fd5b80638065657f1461040d5780638f2a0bb01461042d5780638f61f4f51461044d57600080fd5b80632ab0f5291161015957806336568abe1161013357806336568abe14610380578063584b153e146103a057806364d62353146103c05780637958004c146103e057600080fd5b80632ab0f529146103205780632f2ff15d1461034057806331d507501461036057600080fd5b8063134008d311610195578063134008d31461026057806313bc9f2014610273578063150b7a0214610293578063248a9ca3146102f057600080fd5b806301d5062a146101c757806301ffc9a7146101e957806307bd02651461021e57600080fd5b366101c257005b600080fd5b3480156101d357600080fd5b506101e76101e2366004611817565b61064d565b005b3480156101f557600080fd5b5061020961020436600461188c565b610723565b60405190151581526020015b60405180910390f35b34801561022a57600080fd5b506102527fd8aa0f3194971a2a116679f7c2090f6939c8d4e01a2a8d7e41d55e5351469e6381565b604051908152602001610215565b6101e761026e3660046118b6565b610734565b34801561027f57600080fd5b5061020961028e366004611922565b6109a3565b34801561029f57600080fd5b506102d76102ae3660046119f2565b7f150b7a0200000000000000000000000000000000000000000000000000000000949350505050565b6040516001600160e01b03199091168152602001610215565b3480156102fc57600080fd5b5061025261030b366004611922565b60009081526020819052604090206001015490565b34801561032c57600080fd5b5061020961033b366004611922565b6109c9565b34801561034c57600080fd5b506101e761035b366004611a5a565b6109d2565b34801561036c57600080fd5b5061020961037b366004611922565b6109fd565b34801561038c57600080fd5b506101e761039b366004611a5a565b610a22565b3480156103ac57600080fd5b506102096103bb366004611922565b610a73565b3480156103cc57600080fd5b506101e76103db366004611922565b610ab9565b3480156103ec57600080fd5b506104006103fb366004611922565b610b45565b6040516102159190611a9c565b34801561041957600080fd5b506102526104283660046118b6565b610b90565b34801561043957600080fd5b506101e7610448366004611b09565b610bcf565b34801561045957600080fd5b506102527fb09aa5aeb3702cfd50b6b62bc4532604938f21248a27a1d5ca736082b6819cc181565b34801561048d57600080fd5b5061020961049c366004611a5a565b6000918252602082815260408084206001600160a01b0393909316845291905290205460ff1690565b3480156104d157600080fd5b50610252600081565b3480156104e657600080fd5b506102527ffd643c72710c63c0180259aba6b2d05451e3591a24e58b62239378085726f78381565b34801561051a57600080fd5b50610252610529366004611bc7565b610d72565b34801561053a57600080fd5b506102d7610549366004611cff565b7fbc197c810000000000000000000000000000000000000000000000000000000095945050505050565b34801561057f57600080fd5b506101e761058e366004611922565b610db7565b34801561059f57600080fd5b506102526105ae366004611922565b60009081526001602052604090205490565b3480156105cc57600080fd5b506101e76105db366004611a5a565b610e62565b6101e76105ee366004611bc7565b610e87565b3480156105ff57600080fd5b506102d761060e366004611db5565b7ff23a6e610000000000000000000000000000000000000000000000000000000095945050505050565b34801561064457600080fd5b50600254610252565b7fb09aa5aeb3702cfd50b6b62bc4532604938f21248a27a1d5ca736082b6819cc1610677816111de565b6000610687898989898989610b90565b905061069381846111eb565b6000817f4cf4410cc57040e44862ef0f45f3dd5a5e02db8eb8add648d4b0e236f1d07dca8b8b8b8b8b8a6040516106cf96959493929190611e37565b60405180910390a3831561071857807f20fda5fd27a1ea7bf5b9567f143ac5470bb059374a27e8f67cb44f946f6d03878560405161070f91815260200190565b60405180910390a25b505050505050505050565b600061072e82611298565b92915050565b600080527fdae2aa361dfd1ca020a396615627d436107c35eff9fe7738a3512819782d70696020527f5ba6852781629bcdcd4bdaa6de76d786f1c64b16acdac474e55bebc0ea157951547fd8aa0f3194971a2a116679f7c2090f6939c8d4e01a2a8d7e41d55e5351469e639060ff166107b1576107b181336112d6565b60005b60208160ff161080156107e85750818160ff16602081106107d7576107d7611e75565b1a60f81b6001600160f81b03191615155b156107ff57806107f781611ea1565b9150506107b4565b60008160ff1667ffffffffffffffff81111561081d5761081d61193b565b6040519080825280601f01601f191660200182016040528015610847576020820181803683370190505b509050600091505b60208260ff161080156108835750828260ff166020811061087257610872611e75565b1a60f81b6001600160f81b03191615155b156108f757828260ff166020811061089d5761089d611e75565b1a60f81b818360ff16815181106108b6576108b6611e75565b60200101907effffffffffffffffffffffffffffffffffffffffffffffffffffffffffffff1916908160001a905350816108ef81611ea1565b92505061084f565b60408051808201909152600b81526a726f6c655f537472696e6760a81b602082015281906109259082611346565b60006109358b8b8b8b8b8b610b90565b905061094181886113b9565b61094d8b8b8b8b611420565b6000817fc2617efa69bab66782fa219543714338489c4e9e178271560a91b82c3f612b588d8d8d8d6040516109859493929190611ec0565b60405180910390a361099681611498565b5050505050505050505050565b600060025b6109b183610b45565b60038111156109c2576109c2611a86565b1492915050565b600060036109a8565b6000828152602081905260409020600101546109ed816111de565b6109f783836114c4565b50505050565b600080610a0983610b45565b6003811115610a1a57610a1a611a86565b141592915050565b6001600160a01b0381163314610a64576040517f6697b23200000000000000000000000000000000000000000000000000000000815260040160405180910390fd5b610a6e828261156e565b505050565b600080610a7f83610b45565b90506001816003811115610a9557610a95611a86565b1480610ab257506002816003811115610ab057610ab0611a86565b145b9392505050565b33308114610b03576040517fe2850c590000000000000000000000000000000000000000000000000000000081526001600160a01b03821660048201526024015b60405180910390fd5b60025460408051918252602082018490527f11c24f4ead16507c69ac467fbd5e4eed5fb5c699626d2cc6d66421df253886d5910160405180910390a150600255565b60008181526001602052604081205480600003610b655750600092915050565b60018103610b765750600392915050565b42811115610b875750600192915050565b50600292915050565b6000868686868686604051602001610bad96959493929190611e37565b6040516020818303038152906040528051906020012090509695505050505050565b7fb09aa5aeb3702cfd50b6b62bc4532604938f21248a27a1d5ca736082b6819cc1610bf9816111de565b8887141580610c085750888514155b15610c50576040517fffb03211000000000000000000000000000000000000000000000000000000008152600481018a90526024810186905260448101889052606401610afa565b6000610c628b8b8b8b8b8b8b8b610d72565b9050610c6e81846111eb565b60005b8a811015610d245780827f4cf4410cc57040e44862ef0f45f3dd5a5e02db8eb8add648d4b0e236f1d07dca8e8e85818110610cae57610cae611e75565b9050602002016020810190610cc39190611ee9565b8d8d86818110610cd557610cd5611e75565b905060200201358c8c87818110610cee57610cee611e75565b9050602002810190610d009190611f04565b8c8b604051610d1496959493929190611e37565b60405180910390a3600101610c71565b50831561099657807f20fda5fd27a1ea7bf5b9567f143ac5470bb059374a27e8f67cb44f946f6d038785604051610d5d91815260200190565b60405180910390a25050505050505050505050565b60008888888888888888604051602001610d93989796959493929190611fe5565b60405160208183030381529060405280519060200120905098975050505050505050565b7ffd643c72710c63c0180259aba6b2d05451e3591a24e58b62239378085726f783610de1816111de565b610dea82610a73565b610e265781610df960026115f1565b610e0360016115f1565b604051635ead8eb560e01b81526004810193909352176024820152604401610afa565b6000828152600160205260408082208290555183917fbaa1eb22f2a492ba1a5fea61b8df4d27c6c8b5f3971e63bb58fa14ff72eedb7091a25050565b600082815260208190526040902060010154610e7d816111de565b6109f7838361156e565b600080527fdae2aa361dfd1ca020a396615627d436107c35eff9fe7738a3512819782d70696020527f5ba6852781629bcdcd4bdaa6de76d786f1c64b16acdac474e55bebc0ea157951547fd8aa0f3194971a2a116679f7c2090f6939c8d4e01a2a8d7e41d55e5351469e639060ff16610f0457610f0481336112d6565b60005b60208160ff16108015610f3b5750818160ff1660208110610f2a57610f2a611e75565b1a60f81b6001600160f81b03191615155b15610f525780610f4a81611ea1565b915050610f07565b60008160ff1667ffffffffffffffff811115610f7057610f7061193b565b6040519080825280601f01601f191660200182016040528015610f9a576020820181803683370190505b509050600091505b60208260ff16108015610fd65750828260ff1660208110610fc557610fc5611e75565b1a60f81b6001600160f81b03191615155b1561104a57828260ff1660208110610ff057610ff0611e75565b1a60f81b818360ff168151811061100957611009611e75565b60200101907effffffffffffffffffffffffffffffffffffffffffffffffffffffffffffff1916908160001a9053508161104281611ea1565b925050610fa2565b60408051808201909152600b81526a726f6c655f537472696e6760a81b602082015281906110789082611346565b8a8914158061108757508a8714155b156110cf576040517fffb03211000000000000000000000000000000000000000000000000000000008152600481018c905260248101889052604481018a9052606401610afa565b60006110e18d8d8d8d8d8d8d8d610d72565b90506110ed81886113b9565b60005b8c8110156111c55760008e8e8381811061110c5761110c611e75565b90506020020160208101906111219190611ee9565b905060008d8d8481811061113757611137611e75565b9050602002013590503660008d8d8681811061115557611155611e75565b90506020028101906111679190611f04565b9150915061117784848484611420565b84867fc2617efa69bab66782fa219543714338489c4e9e178271560a91b82c3f612b58868686866040516111ae9493929190611ec0565b60405180910390a3505050508060010190506110f0565b506111cf81611498565b50505050505050505050505050565b6111e881336112d6565b50565b6111f4826109fd565b15611226578161120460006115f1565b604051635ead8eb560e01b815260048101929092526024820152604401610afa565b600061123160025490565b905080821015611277576040517f543366090000000000000000000000000000000000000000000000000000000081526004810183905260248101829052604401610afa565b611281824261209f565b600093845260016020526040909320929092555050565b60006001600160e01b031982167f4e2312e000000000000000000000000000000000000000000000000000000000148061072e575061072e82611614565b6000828152602081815260408083206001600160a01b038516845290915290205460ff16611342576040517fe2517d3f0000000000000000000000000000000000000000000000000000000081526001600160a01b038216600482015260248101839052604401610afa565b5050565b611342828260405160240161135c9291906120f8565b60408051601f198184030181529190526020810180517bffffffffffffffffffffffffffffffffffffffffffffffffffffffff167f4b5c42770000000000000000000000000000000000000000000000000000000017905261167b565b6113c2826109a3565b6113d1578161120460026115f1565b80158015906113e657506113e4816109c9565b155b15611342576040517f90a9a61800000000000000000000000000000000000000000000000000000000815260048101829052602401610afa565b600080856001600160a01b031685858560405161143e929190612126565b60006040518083038185875af1925050503d806000811461147b576040519150601f19603f3d011682016040523d82523d6000602084013e611480565b606091505b509150915061148f8282611684565b50505050505050565b6114a1816109a3565b6114b0578061120460026115f1565b600090815260016020819052604090912055565b6000828152602081815260408083206001600160a01b038516845290915281205460ff16611566576000838152602081815260408083206001600160a01b03861684529091529020805460ff1916600117905561151e3390565b6001600160a01b0316826001600160a01b0316847f2f8788117e7eff1d82e926ec794901d17c78024a50270940304540a733656f0d60405160405180910390a450600161072e565b50600061072e565b6000828152602081815260408083206001600160a01b038516845290915281205460ff1615611566576000838152602081815260408083206001600160a01b0386168085529252808320805460ff1916905551339286917ff6391f5c32d9c69d2a47ea670b442974b53935d1edc7fd64eb21e047a839171b9190a450600161072e565b600081600381111561160557611605611a86565b600160ff919091161b92915050565b60006001600160e01b031982167f7965db0b00000000000000000000000000000000000000000000000000000000148061072e57507f01ffc9a7000000000000000000000000000000000000000000000000000000006001600160e01b031983161461072e565b6111e8816116de565b60606116c46040518060400160405280601e81526020017f416464726573732d76657269667943616c6c526573756c7428292d31313100008152506116ff565b826116d7576116d282611770565b61072e565b508061072e565b60006a636f6e736f6c652e6c6f679050600080835160208501845afa505050565b6111e8816040516024016117139190612136565b60408051601f198184030181529190526020810180517bffffffffffffffffffffffffffffffffffffffffffffffffffffffff167f41304fac0000000000000000000000000000000000000000000000000000000017905261167b565b8051156117805780518082602001fd5b6040517fd6bda27500000000000000000000000000000000000000000000000000000000815260040160405180910390fd5b80356001600160a01b03811681146117c957600080fd5b919050565b60008083601f8401126117e057600080fd5b50813567ffffffffffffffff8111156117f857600080fd5b60208301915083602082850101111561181057600080fd5b9250929050565b600080600080600080600060c0888a03121561183257600080fd5b61183b886117b2565b965060208801359550604088013567ffffffffffffffff81111561185e57600080fd5b61186a8a828b016117ce565b989b979a50986060810135976080820135975060a09091013595509350505050565b60006020828403121561189e57600080fd5b81356001600160e01b031981168114610ab257600080fd5b60008060008060008060a087890312156118cf57600080fd5b6118d8876117b2565b955060208701359450604087013567ffffffffffffffff8111156118fb57600080fd5b61190789828a016117ce565b979a9699509760608101359660809091013595509350505050565b60006020828403121561193457600080fd5b5035919050565b634e487b7160e01b600052604160045260246000fd5b604051601f8201601f1916810167ffffffffffffffff8111828210171561197a5761197a61193b565b604052919050565b600082601f83011261199357600080fd5b813567ffffffffffffffff8111156119ad576119ad61193b565b6119c0601f8201601f1916602001611951565b8181528460208386010111156119d557600080fd5b816020850160208301376000918101602001919091529392505050565b60008060008060808587031215611a0857600080fd5b611a11856117b2565b9350611a1f602086016117b2565b925060408501359150606085013567ffffffffffffffff811115611a4257600080fd5b611a4e87828801611982565b91505092959194509250565b60008060408385031215611a6d57600080fd5b82359150611a7d602084016117b2565b90509250929050565b634e487b7160e01b600052602160045260246000fd5b6020810160048310611abe57634e487b7160e01b600052602160045260246000fd5b91905290565b60008083601f840112611ad657600080fd5b50813567ffffffffffffffff811115611aee57600080fd5b6020830191508360208260051b850101111561181057600080fd5b600080600080600080600080600060c08a8c031215611b2757600080fd5b893567ffffffffffffffff811115611b3e57600080fd5b611b4a8c828d01611ac4565b909a5098505060208a013567ffffffffffffffff811115611b6a57600080fd5b611b768c828d01611ac4565b90985096505060408a013567ffffffffffffffff811115611b9657600080fd5b611ba28c828d01611ac4565b9a9d999c50979a969997986060880135976080810135975060a0013595509350505050565b60008060008060008060008060a0898b031215611be357600080fd5b883567ffffffffffffffff811115611bfa57600080fd5b611c068b828c01611ac4565b909950975050602089013567ffffffffffffffff811115611c2657600080fd5b611c328b828c01611ac4565b909750955050604089013567ffffffffffffffff811115611c5257600080fd5b611c5e8b828c01611ac4565b999c989b509699959896976060870135966080013595509350505050565b600082601f830112611c8d57600080fd5b813567ffffffffffffffff811115611ca757611ca761193b565b8060051b611cb760208201611951565b91825260208185018101929081019086841115611cd357600080fd5b6020860192505b83831015611cf5578235825260209283019290910190611cda565b9695505050505050565b600080600080600060a08688031215611d1757600080fd5b611d20866117b2565b9450611d2e602087016117b2565b9350604086013567ffffffffffffffff811115611d4a57600080fd5b611d5688828901611c7c565b935050606086013567ffffffffffffffff811115611d7357600080fd5b611d7f88828901611c7c565b925050608086013567ffffffffffffffff811115611d9c57600080fd5b611da888828901611982565b9150509295509295909350565b600080600080600060a08688031215611dcd57600080fd5b611dd6866117b2565b9450611de4602087016117b2565b93506040860135925060608601359150608086013567ffffffffffffffff811115611d9c57600080fd5b81835281816020850137506000828201602090810191909152601f909101601f19169091010190565b6001600160a01b038716815285602082015260a060408201526000611e6060a083018688611e0e565b60608301949094525060800152949350505050565b634e487b7160e01b600052603260045260246000fd5b634e487b7160e01b600052601160045260246000fd5b600060ff821660ff8103611eb757611eb7611e8b565b60010192915050565b6001600160a01b0385168152836020820152606060408201526000611cf5606083018486611e0e565b600060208284031215611efb57600080fd5b610ab2826117b2565b6000808335601e19843603018112611f1b57600080fd5b83018035915067ffffffffffffffff821115611f3657600080fd5b60200191503681900382131561181057600080fd5b60008383855260208501945060208460051b8201018360005b86811015611fd957838303601f19018852813536879003601e19018112611f8a57600080fd5b860160208101903567ffffffffffffffff811115611fa757600080fd5b803603821315611fb657600080fd5b611fc1858284611e0e565b60209a8b019a90955093909301925050600101611f64565b50909695505050505050565b60a0808252810188905260008960c08301825b8b811015612026576001600160a01b03612011846117b2565b16825260209283019290910190600101611ff8565b5083810360208501528881527f07ffffffffffffffffffffffffffffffffffffffffffffffffffffffffffffff89111561205f57600080fd5b8860051b9150818a602083013701828103602090810160408501526120879082018789611f4b565b60608401959095525050608001529695505050505050565b8082018082111561072e5761072e611e8b565b6000815180845260005b818110156120d8576020818501810151868301820152016120bc565b506000602082860101526020601f19601f83011685010191505092915050565b60408152600061210b60408301856120b2565b828103602084015261211d81856120b2565b95945050505050565b8183823760009101908152919050565b602081526000610ab260208301846120b256fea264697066735822122026fd0c0406c1348c7d135e2a8dc466c52ea9d8b9d1af39e4f5c52982e742d14b64736f6c634300081b0033",
  "linkReferences": {},
  "deployedLinkReferences": {}
}