{
  "_format": "hh-sol-artifact-1",
  "contractName": "kokoNFT",
  "sourceName": "contracts/catNFT/kokoNFT.sol",
  "abi": [
    {
      "inputs": [
        {
          "internalType": "string",
          "name": "tokenURI",
          "type": "string"
        }
      ],
      "stateMutability": "nonpayable",
      "type": "constructor"
    },
    {
      "inputs": [
        {
          "internalType": "address",
          "name": "owner",
          "type": "address"
        },
        {
          "internalType": "address",
          "name": "operator",
          "type": "address"
        },
        {
          "internalType": "bool",
          "name": "approved",
          "type": "bool"
        }
      ],
      "name": "_setApprovalForAll",
      "outputs": [
        {
          "internalType": "bool",
          "name": "",
          "type": "bool"
        }
      ],
      "stateMutability": "nonpayable",
      "type": "function"
    },
    {
      "inputs": [
        {
          "internalType": "address",
          "name": "owner",
          "type": "address"
        }
      ],
      "name": "balanceOf",
      "outputs": [
        {
          "internalType": "uint256",
          "name": "",
          "type": "uint256"
        }
      ],
      "stateMutability": "view",
      "type": "function"
    },
    {
      "inputs": [
        {
          "internalType": "uint256",
          "name": "tokenId",
          "type": "uint256"
        }
      ],
      "name": "checkgetApproved",
      "outputs": [
        {
          "internalType": "address",
          "name": "",
          "type": "address"
        }
      ],
      "stateMutability": "view",
      "type": "function"
    },
    {
      "inputs": [
        {
          "internalType": "uint256",
          "name": "tokenId",
          "type": "uint256"
        }
      ],
      "name": "checkgetOwner",
      "outputs": [
        {
          "internalType": "address",
          "name": "",
          "type": "address"
        }
      ],
      "stateMutability": "view",
      "type": "function"
    },
    {
      "inputs": [
        {
          "internalType": "uint256",
          "name": "tokenId",
          "type": "uint256"
        }
      ],
      "name": "getTokenURI",
      "outputs": [
        {
          "internalType": "string",
          "name": "",
          "type": "string"
        }
      ],
      "stateMutability": "view",
      "type": "function"
    },
    {
      "inputs": [
        {
          "internalType": "address",
          "name": "owner",
          "type": "address"
        },
        {
          "internalType": "address",
          "name": "operator",
          "type": "address"
        }
      ],
      "name": "isApprovalForAll",
      "outputs": [
        {
          "internalType": "bool",
          "name": "",
          "type": "bool"
        }
      ],
      "stateMutability": "view",
      "type": "function"
    },
    {
      "inputs": [],
      "name": "name",
      "outputs": [
        {
          "internalType": "string",
          "name": "",
          "type": "string"
        }
      ],
      "stateMutability": "view",
      "type": "function"
    },
    {
      "inputs": [
        {
          "internalType": "address",
          "name": "to",
          "type": "address"
        },
        {
          "internalType": "uint256",
          "name": "tokenId",
          "type": "uint256"
        }
      ],
      "name": "setApprove",
      "outputs": [
        {
          "internalType": "bool",
          "name": "",
          "type": "bool"
        }
      ],
      "stateMutability": "nonpayable",
      "type": "function"
    },
    {
      "inputs": [],
      "name": "symbol",
      "outputs": [
        {
          "internalType": "string",
          "name": "",
          "type": "string"
        }
      ],
      "stateMutability": "view",
      "type": "function"
    },
    {
      "inputs": [
        {
          "internalType": "address",
          "name": "to",
          "type": "address"
        },
        {
          "internalType": "uint256",
          "name": "tokenId",
          "type": "uint256"
        }
      ],
      "name": "transfer",
      "outputs": [
        {
          "internalType": "bool",
          "name": "",
          "type": "bool"
        }
      ],
      "stateMutability": "nonpayable",
      "type": "function"
    },
    {
      "inputs": [
        {
          "internalType": "address",
          "name": "to",
          "type": "address"
        },
        {
          "internalType": "uint256",
          "name": "tokenId",
          "type": "uint256"
        }
      ],
      "name": "transferFrom",
      "outputs": [
        {
          "internalType": "bool",
          "name": "",
          "type": "bool"
        }
      ],
      "stateMutability": "nonpayable",
      "type": "function"
    }
  ],
  "bytecode": "0x608060405261636660075534801561001657600080fd5b506040516112ad3803806112ad8339810160408190526100359161038a565b6040518060400160405280600c81526020016b4361742050726f706572747960a01b8152506040518060400160405280600681526020016510d85d13919560d21b815250816000908161008891906104c5565b50600161009582826104c5565b5060408051808201909152601b81527f45524337323120636f6e74726163742069732063616c6c65647e7e000000000060208201526100d3906100f5565b50506100ee3360075460016100e89190610583565b8361013f565b50506105d7565b61013c8160405160240161010991906105a4565b60408051601f198184030181529190526020810180516001600160e01b0390811663104c13eb60e21b1790915261015616565b50565b600061014c848484610169565b90505b9392505050565b61013c8161021e60201b61083b1760201c565b60006001600160a01b0384161561021457610184838361023f565b506001600160a01b03841660009081526003602052604081208054600192906101ae908490610583565b909155505060008381526002602090815260409182902080546001600160a01b0319166001600160a01b0388161790558151808301909252601182527036b4b73a1031b7b6b83632ba32b23f3f3f60791b9082015261020c906100f5565b50600161014f565b5060009392505050565b60006a636f6e736f6c652e6c6f679050600080835160208501845afa505050565b60003361024b846102df565b6001600160a01b0316146102bb5760405162461bcd60e51b815260206004820152602c60248201527f4552524f5220636865636b6765744f776e65723a206d73672e73656e6465722060448201526b34b9903737ba1037bbb732b960a11b60648201526084015b60405180910390fd5b60008381526004602052604090206102d383826104c5565b50600190505b92915050565b6000818152600260205260408120546001600160a01b0316806102d95760405162461bcd60e51b815260206004820152602360248201527f4552524f5220636865636b6765744f776e65723a206f776e6572206973206e7560448201526206c6c360ec1b60648201526084016102b2565b634e487b7160e01b600052604160045260246000fd5b60005b83811015610381578181015183820152602001610369565b50506000910152565b60006020828403121561039c57600080fd5b81516001600160401b038111156103b257600080fd5b8201601f810184136103c357600080fd5b80516001600160401b038111156103dc576103dc610350565b604051601f8201601f19908116603f011681016001600160401b038111828210171561040a5761040a610350565b60405281815282820160200186101561042257600080fd5b610433826020830160208601610366565b95945050505050565b600181811c9082168061045057607f821691505b60208210810361047057634e487b7160e01b600052602260045260246000fd5b50919050565b601f8211156104c057806000526020600020601f840160051c8101602085101561049d5750805b601f840160051c820191505b818110156104bd57600081556001016104a9565b50505b505050565b81516001600160401b038111156104de576104de610350565b6104f2816104ec845461043c565b84610476565b6020601f821160018114610526576000831561050e5750848201515b600019600385901b1c1916600184901b1784556104bd565b600084815260208120601f198516915b828110156105565787850151825560209485019460019092019101610536565b50848210156105745786840151600019600387901b60f8161c191681555b50505050600190811b01905550565b808201808211156102d957634e487b7160e01b600052601160045260246000fd5b60208152600082518060208401526105c3816040850160208701610366565b601f01601f19169190910160400192915050565b610cc7806105e66000396000f3fe608060405234801561001057600080fd5b50600436106100c95760003560e01c806395d89b4111610081578063eace37cb1161005b578063eace37cb14610196578063ebd1d359146101c1578063f0308b03146101fd57600080fd5b806395d89b4114610168578063a9059cbb14610170578063c4925fea1461018357600080fd5b80633bb3a24d116100b25780633bb3a24d1461010b57806370a082311461011e5780638c4e3f321461015557600080fd5b806301c6adc3146100ce57806306fdde03146100f6575b600080fd5b6100e16100dc366004610a41565b610210565b60405190151581526020015b60405180910390f35b6100fe610305565b6040516100ed9190610a6b565b6100fe610119366004610ab9565b610397565b61014761012c366004610ad2565b6001600160a01b031660009081526003602052604090205490565b6040519081526020016100ed565b6100e1610163366004610aed565b610442565b6100fe6104f3565b6100e161017e366004610a41565b610502565b6100e1610191366004610a41565b610617565b6101a96101a4366004610ab9565b610759565b6040516001600160a01b0390911681526020016100ed565b6100e16101cf366004610b39565b6001600160a01b03918216600090815260066020908152604080832093909416825291909152205460ff1690565b6101a961020b366004610ab9565b6107b0565b600080338161021e856107b0565b9050600061022b86610759565b6001600160a01b031614158061026657506001600160a01b0380821660009081526006602090815260408083209386168352929052205460ff165b156102bb5761027681878761085c565b92506102b66040518060400160405280601981526020017f7472616e73666572466f726d20636f6d706c65746564207e7e0000000000000081525061099e565b6102f9565b6102f96040518060400160405280601e81526020017f4552524f52207472616e7366657246726f6d3a206e6f20617070726f7665000081525061099e565b50909150505b92915050565b60606000805461031490610b6c565b80601f016020809104026020016040519081016040528092919081815260200182805461034090610b6c565b801561038d5780601f106103625761010080835404028352916020019161038d565b820191906000526020600020905b81548152906001019060200180831161037057829003601f168201915b5050505050905090565b60606103a2826107b0565b50600082815260046020526040812080546103bc90610b6c565b80601f01602080910402602001604051908101604052809291908181526020018280546103e890610b6c565b80156104355780601f1061040a57610100808354040283529160200191610435565b820191906000526020600020905b81548152906001019060200180831161041857829003601f168201915b5093979650505050505050565b60006001600160a01b03831661047b576104736040518060600160405280602a8152602001610bf9602a913961099e565b5060006104ec565b6001600160a01b038085166000908152600660209081526040808320938716835292815290829020805460ff191660011790558151808301909252601f82527f5f736574417070726f76616c466f72416c6c20636f6d706c657465647e7e7e00908201526104e89061099e565b5060015b9392505050565b60606001805461031490610b6c565b6000806001600160a01b0384166105865760405162461bcd60e51b815260206004820152602260248201527f4552524f52207472616e736665723a20746f2061646472657373206973206e7560448201527f6c6c00000000000000000000000000000000000000000000000000000000000060648201526084015b60405180910390fd5b6000838152600260205260409020546001600160a01b031633036105f6576105af33858561085c565b90506105ef6040518060400160405280601581526020017f7472616e7366657220636f6d706c657465647e7e7e000000000000000000000081525061099e565b90506102ff565b6104ec604051806060016040528060218152602001610c4b6021913961099e565b6000610622826107b0565b6001600160a01b0316336001600160a01b0316146106a85760405162461bcd60e51b815260206004820152602360248201527f4552524f52205f736574417070726f76653a796f7520617265206e6f74206f7760448201527f6e65720000000000000000000000000000000000000000000000000000000000606482015260840161057d565b6001600160a01b0383166106df576106d7604051806060016040528060268152602001610c6c6026913961099e565b5060006102ff565b600082815260056020908152604091829020805473ffffffffffffffffffffffffffffffffffffffff19166001600160a01b0387161790558151808301909252601882527f5f736574417070726f766520636f6d706c657465647e7e7e0000000000000000908201526107519061099e565b5060016102ff565b600080610765836107b0565b6000848152600560205260409020549091506001600160a01b0316806104ec576107a6604051806060016040528060288152602001610c236028913961099e565b5060009392505050565b6000818152600260205260408120546001600160a01b0316806102ff5760405162461bcd60e51b815260206004820152602360248201527f4552524f5220636865636b6765744f776e65723a206f776e6572206973206e7560448201527f6c6c300000000000000000000000000000000000000000000000000000000000606482015260840161057d565b60006a636f6e736f6c652e6c6f679050600080835160208501845afa505050565b60006001600160a01b0384161580159061087e57506001600160a01b03831615155b156107a6576000828152600260205260409020546001600160a01b0385811691161480156108c357506001600160a01b03841660009081526003602052604090205415155b156107a6576001600160a01b03841660009081526003602052604081208054600192906108f1908490610bbc565b90915550506001600160a01b038316600090815260036020526040812080546001929061091f908490610bcf565b9091555050600082815260026020908152604091829020805473ffffffffffffffffffffffffffffffffffffffff19166001600160a01b0387161790558151808301909252601382527f75706461746520636f6d706c657465647e7e7e00000000000000000000000000908201526109969061099e565b5060016104ec565b610a0f816040516024016109b29190610a6b565b60408051601f198184030181529190526020810180517bffffffffffffffffffffffffffffffffffffffffffffffffffffffff167f41304fac00000000000000000000000000000000000000000000000000000000179052610a12565b50565b610a0f8161083b565b610a23610be2565b565b80356001600160a01b0381168114610a3c57600080fd5b919050565b60008060408385031215610a5457600080fd5b610a5d83610a25565b946020939093013593505050565b602081526000825180602084015260005b81811015610a995760208186018101516040868401015201610a7c565b506000604082850101526040601f19601f83011684010191505092915050565b600060208284031215610acb57600080fd5b5035919050565b600060208284031215610ae457600080fd5b6104ec82610a25565b600080600060608486031215610b0257600080fd5b610b0b84610a25565b9250610b1960208501610a25565b915060408401358015158114610b2e57600080fd5b809150509250925092565b60008060408385031215610b4c57600080fd5b610b5583610a25565b9150610b6360208401610a25565b90509250929050565b600181811c90821680610b8057607f821691505b602082108103610ba057634e487b7160e01b600052602260045260246000fd5b50919050565b634e487b7160e01b600052601160045260246000fd5b818103818111156102ff576102ff610ba6565b808201808211156102ff576102ff610ba6565b634e487b7160e01b600052605160045260246000fdfe4552524f52205f736574417070726f76616c466f72416c6c3a6f70657261746f72206973206e756c6c304552524f5220636865636b676574417070726f7665643a206f70657261746f72206973206e756c6c4552524f52207472616e736665723a20596f7520617265206e6f74206f776e65724552524f52205f736574417070726f76653a20746f2061646472657373206973206e756c6c30a264697066735822122066dc030aead4a6b7608778c2d3732a511ef12ded8da570cdcf3b7d72c1ef629664736f6c634300081b0033",
  "linkReferences": {},
  "deployedLinkReferences": {}
}