{
  "_format": "hh-sol-artifact-1",
  "contractName": "kokoCatNFT",
  "sourceName": "contracts/catNFT/kokoCatNFT.sol",
  "abi": [
    {
      "inputs": [
        {
          "internalType": "address",
          "name": "defaultAdmin",
          "type": "address"
        },
        {
          "internalType": "address",
          "name": "minter",
          "type": "address"
        }
      ],
      "stateMutability": "nonpayable",
      "type": "constructor"
    },
    {
      "inputs": [],
      "name": "AccessControlBadConfirmation",
      "type": "error"
    },
    {
      "inputs": [
        {
          "internalType": "address",
          "name": "account",
          "type": "address"
        },
        {
          "internalType": "bytes32",
          "name": "neededRole",
          "type": "bytes32"
        }
      ],
      "name": "AccessControlUnauthorizedAccount",
      "type": "error"
    },
    {
      "inputs": [
        {
          "internalType": "address",
          "name": "sender",
          "type": "address"
        },
        {
          "internalType": "uint256",
          "name": "tokenId",
          "type": "uint256"
        },
        {
          "internalType": "address",
          "name": "owner",
          "type": "address"
        }
      ],
      "name": "ERC721IncorrectOwner",
      "type": "error"
    },
    {
      "inputs": [
        {
          "internalType": "address",
          "name": "operator",
          "type": "address"
        },
        {
          "internalType": "uint256",
          "name": "tokenId",
          "type": "uint256"
        }
      ],
      "name": "ERC721InsufficientApproval",
      "type": "error"
    },
    {
      "inputs": [
        {
          "internalType": "address",
          "name": "approver",
          "type": "address"
        }
      ],
      "name": "ERC721InvalidApprover",
      "type": "error"
    },
    {
      "inputs": [
        {
          "internalType": "address",
          "name": "operator",
          "type": "address"
        }
      ],
      "name": "ERC721InvalidOperator",
      "type": "error"
    },
    {
      "inputs": [
        {
          "internalType": "address",
          "name": "owner",
          "type": "address"
        }
      ],
      "name": "ERC721InvalidOwner",
      "type": "error"
    },
    {
      "inputs": [
        {
          "internalType": "address",
          "name": "receiver",
          "type": "address"
        }
      ],
      "name": "ERC721InvalidReceiver",
      "type": "error"
    },
    {
      "inputs": [
        {
          "internalType": "address",
          "name": "sender",
          "type": "address"
        }
      ],
      "name": "ERC721InvalidSender",
      "type": "error"
    },
    {
      "inputs": [
        {
          "internalType": "uint256",
          "name": "tokenId",
          "type": "uint256"
        }
      ],
      "name": "ERC721NonexistentToken",
      "type": "error"
    },
    {
      "anonymous": false,
      "inputs": [
        {
          "indexed": true,
          "internalType": "address",
          "name": "owner",
          "type": "address"
        },
        {
          "indexed": true,
          "internalType": "address",
          "name": "approved",
          "type": "address"
        },
        {
          "indexed": true,
          "internalType": "uint256",
          "name": "tokenId",
          "type": "uint256"
        }
      ],
      "name": "Approval",
      "type": "event"
    },
    {
      "anonymous": false,
      "inputs": [
        {
          "indexed": true,
          "internalType": "address",
          "name": "owner",
          "type": "address"
        },
        {
          "indexed": true,
          "internalType": "address",
          "name": "operator",
          "type": "address"
        },
        {
          "indexed": false,
          "internalType": "bool",
          "name": "approved",
          "type": "bool"
        }
      ],
      "name": "ApprovalForAll",
      "type": "event"
    },
    {
      "anonymous": false,
      "inputs": [
        {
          "indexed": false,
          "internalType": "uint256",
          "name": "_fromTokenId",
          "type": "uint256"
        },
        {
          "indexed": false,
          "internalType": "uint256",
          "name": "_toTokenId",
          "type": "uint256"
        }
      ],
      "name": "BatchMetadataUpdate",
      "type": "event"
    },
    {
      "anonymous": false,
      "inputs": [
        {
          "indexed": false,
          "internalType": "uint256",
          "name": "_tokenId",
          "type": "uint256"
        }
      ],
      "name": "MetadataUpdate",
      "type": "event"
    },
    {
      "anonymous": false,
      "inputs": [
        {
          "indexed": true,
          "internalType": "bytes32",
          "name": "role",
          "type": "bytes32"
        },
        {
          "indexed": true,
          "internalType": "bytes32",
          "name": "previousAdminRole",
          "type": "bytes32"
        },
        {
          "indexed": true,
          "internalType": "bytes32",
          "name": "newAdminRole",
          "type": "bytes32"
        }
      ],
      "name": "RoleAdminChanged",
      "type": "event"
    },
    {
      "anonymous": false,
      "inputs": [
        {
          "indexed": true,
          "internalType": "bytes32",
          "name": "role",
          "type": "bytes32"
        },
        {
          "indexed": true,
          "internalType": "address",
          "name": "account",
          "type": "address"
        },
        {
          "indexed": true,
          "internalType": "address",
          "name": "sender",
          "type": "address"
        }
      ],
      "name": "RoleGranted",
      "type": "event"
    },
    {
      "anonymous": false,
      "inputs": [
        {
          "indexed": true,
          "internalType": "bytes32",
          "name": "role",
          "type": "bytes32"
        },
        {
          "indexed": true,
          "internalType": "address",
          "name": "account",
          "type": "address"
        },
        {
          "indexed": true,
          "internalType": "address",
          "name": "sender",
          "type": "address"
        }
      ],
      "name": "RoleRevoked",
      "type": "event"
    },
    {
      "anonymous": false,
      "inputs": [
        {
          "indexed": true,
          "internalType": "address",
          "name": "from",
          "type": "address"
        },
        {
          "indexed": true,
          "internalType": "address",
          "name": "to",
          "type": "address"
        },
        {
          "indexed": true,
          "internalType": "uint256",
          "name": "tokenId",
          "type": "uint256"
        }
      ],
      "name": "Transfer",
      "type": "event"
    },
    {
      "inputs": [],
      "name": "DEFAULT_ADMIN_ROLE",
      "outputs": [
        {
          "internalType": "bytes32",
          "name": "",
          "type": "bytes32"
        }
      ],
      "stateMutability": "view",
      "type": "function"
    },
    {
      "inputs": [],
      "name": "MINTER_ROLE",
      "outputs": [
        {
          "internalType": "bytes32",
          "name": "",
          "type": "bytes32"
        }
      ],
      "stateMutability": "view",
      "type": "function"
    },
    {
      "inputs": [
        {
          "internalType": "uint256",
          "name": "tokenId",
          "type": "uint256"
        },
        {
          "internalType": "string",
          "name": "_name",
          "type": "string"
        },
        {
          "internalType": "uint256",
          "name": "_chipId",
          "type": "uint256"
        },
        {
          "internalType": "uint256",
          "name": "_birthDate",
          "type": "uint256"
        },
        {
          "internalType": "uint256",
          "name": "_age",
          "type": "uint256"
        },
        {
          "internalType": "bool",
          "name": "_sex",
          "type": "bool"
        },
        {
          "internalType": "string",
          "name": "_breed",
          "type": "string"
        }
      ],
      "name": "addCat",
      "outputs": [],
      "stateMutability": "nonpayable",
      "type": "function"
    },
    {
      "inputs": [
        {
          "internalType": "address",
          "name": "to",
          "type": "address"
        },
        {
          "internalType": "uint256",
          "name": "tokenId",
          "type": "uint256"
        }
      ],
      "name": "approve",
      "outputs": [],
      "stateMutability": "nonpayable",
      "type": "function"
    },
    {
      "inputs": [
        {
          "internalType": "address",
          "name": "owner",
          "type": "address"
        }
      ],
      "name": "balanceOf",
      "outputs": [
        {
          "internalType": "uint256",
          "name": "",
          "type": "uint256"
        }
      ],
      "stateMutability": "view",
      "type": "function"
    },
    {
      "inputs": [
        {
          "internalType": "uint256",
          "name": "tokenId",
          "type": "uint256"
        }
      ],
      "name": "burn",
      "outputs": [],
      "stateMutability": "nonpayable",
      "type": "function"
    },
    {
      "inputs": [
        {
          "internalType": "uint256",
          "name": "",
          "type": "uint256"
        }
      ],
      "name": "cats",
      "outputs": [
        {
          "internalType": "string",
          "name": "name",
          "type": "string"
        },
        {
          "internalType": "uint256",
          "name": "chipId",
          "type": "uint256"
        },
        {
          "internalType": "uint256",
          "name": "birthDate",
          "type": "uint256"
        },
        {
          "internalType": "uint256",
          "name": "age",
          "type": "uint256"
        },
        {
          "internalType": "bool",
          "name": "sex",
          "type": "bool"
        },
        {
          "internalType": "string",
          "name": "breed",
          "type": "string"
        }
      ],
      "stateMutability": "view",
      "type": "function"
    },
    {
      "inputs": [
        {
          "internalType": "uint256",
          "name": "tokenId",
          "type": "uint256"
        }
      ],
      "name": "getApproved",
      "outputs": [
        {
          "internalType": "address",
          "name": "",
          "type": "address"
        }
      ],
      "stateMutability": "view",
      "type": "function"
    },
    {
      "inputs": [
        {
          "internalType": "uint256",
          "name": "tokenId",
          "type": "uint256"
        }
      ],
      "name": "getCat",
      "outputs": [
        {
          "components": [
            {
              "internalType": "string",
              "name": "name",
              "type": "string"
            },
            {
              "internalType": "uint256",
              "name": "chipId",
              "type": "uint256"
            },
            {
              "internalType": "uint256",
              "name": "birthDate",
              "type": "uint256"
            },
            {
              "internalType": "uint256",
              "name": "age",
              "type": "uint256"
            },
            {
              "internalType": "bool",
              "name": "sex",
              "type": "bool"
            },
            {
              "internalType": "string",
              "name": "breed",
              "type": "string"
            }
          ],
          "internalType": "struct kokoCatNFT.Property",
          "name": "",
          "type": "tuple"
        }
      ],
      "stateMutability": "view",
      "type": "function"
    },
    {
      "inputs": [
        {
          "internalType": "bytes32",
          "name": "role",
          "type": "bytes32"
        }
      ],
      "name": "getRoleAdmin",
      "outputs": [
        {
          "internalType": "bytes32",
          "name": "",
          "type": "bytes32"
        }
      ],
      "stateMutability": "view",
      "type": "function"
    },
    {
      "inputs": [],
      "name": "getTokenId",
      "outputs": [
        {
          "internalType": "uint256",
          "name": "",
          "type": "uint256"
        }
      ],
      "stateMutability": "view",
      "type": "function"
    },
    {
      "inputs": [],
      "name": "getTotalMintSupply",
      "outputs": [
        {
          "internalType": "uint256",
          "name": "",
          "type": "uint256"
        }
      ],
      "stateMutability": "view",
      "type": "function"
    },
    {
      "inputs": [
        {
          "internalType": "bytes32",
          "name": "role",
          "type": "bytes32"
        },
        {
          "internalType": "address",
          "name": "account",
          "type": "address"
        }
      ],
      "name": "grantRole",
      "outputs": [],
      "stateMutability": "nonpayable",
      "type": "function"
    },
    {
      "inputs": [
        {
          "internalType": "bytes32",
          "name": "role",
          "type": "bytes32"
        },
        {
          "internalType": "address",
          "name": "account",
          "type": "address"
        }
      ],
      "name": "hasRole",
      "outputs": [
        {
          "internalType": "bool",
          "name": "",
          "type": "bool"
        }
      ],
      "stateMutability": "view",
      "type": "function"
    },
    {
      "inputs": [
        {
          "internalType": "address",
          "name": "owner",
          "type": "address"
        },
        {
          "internalType": "address",
          "name": "operator",
          "type": "address"
        }
      ],
      "name": "isApprovedForAll",
      "outputs": [
        {
          "internalType": "bool",
          "name": "",
          "type": "bool"
        }
      ],
      "stateMutability": "view",
      "type": "function"
    },
    {
      "inputs": [],
      "name": "name",
      "outputs": [
        {
          "internalType": "string",
          "name": "",
          "type": "string"
        }
      ],
      "stateMutability": "view",
      "type": "function"
    },
    {
      "inputs": [],
      "name": "newtokenId",
      "outputs": [
        {
          "internalType": "uint256",
          "name": "",
          "type": "uint256"
        }
      ],
      "stateMutability": "view",
      "type": "function"
    },
    {
      "inputs": [
        {
          "internalType": "uint256",
          "name": "tokenId",
          "type": "uint256"
        }
      ],
      "name": "ownerOf",
      "outputs": [
        {
          "internalType": "address",
          "name": "",
          "type": "address"
        }
      ],
      "stateMutability": "view",
      "type": "function"
    },
    {
      "inputs": [
        {
          "internalType": "bytes32",
          "name": "role",
          "type": "bytes32"
        },
        {
          "internalType": "address",
          "name": "callerConfirmation",
          "type": "address"
        }
      ],
      "name": "renounceRole",
      "outputs": [],
      "stateMutability": "nonpayable",
      "type": "function"
    },
    {
      "inputs": [
        {
          "internalType": "bytes32",
          "name": "role",
          "type": "bytes32"
        },
        {
          "internalType": "address",
          "name": "account",
          "type": "address"
        }
      ],
      "name": "revokeRole",
      "outputs": [],
      "stateMutability": "nonpayable",
      "type": "function"
    },
    {
      "inputs": [
        {
          "internalType": "address",
          "name": "to",
          "type": "address"
        },
        {
          "internalType": "string",
          "name": "uri",
          "type": "string"
        }
      ],
      "name": "safeMint",
      "outputs": [],
      "stateMutability": "nonpayable",
      "type": "function"
    },
    {
      "inputs": [
        {
          "internalType": "address",
          "name": "from",
          "type": "address"
        },
        {
          "internalType": "address",
          "name": "to",
          "type": "address"
        },
        {
          "internalType": "uint256",
          "name": "tokenId",
          "type": "uint256"
        }
      ],
      "name": "safeTransferFrom",
      "outputs": [],
      "stateMutability": "nonpayable",
      "type": "function"
    },
    {
      "inputs": [
        {
          "internalType": "address",
          "name": "from",
          "type": "address"
        },
        {
          "internalType": "address",
          "name": "to",
          "type": "address"
        },
        {
          "internalType": "uint256",
          "name": "tokenId",
          "type": "uint256"
        },
        {
          "internalType": "bytes",
          "name": "data",
          "type": "bytes"
        }
      ],
      "name": "safeTransferFrom",
      "outputs": [],
      "stateMutability": "nonpayable",
      "type": "function"
    },
    {
      "inputs": [
        {
          "internalType": "address",
          "name": "operator",
          "type": "address"
        },
        {
          "internalType": "bool",
          "name": "approved",
          "type": "bool"
        }
      ],
      "name": "setApprovalForAll",
      "outputs": [],
      "stateMutability": "nonpayable",
      "type": "function"
    },
    {
      "inputs": [
        {
          "internalType": "bytes4",
          "name": "interfaceId",
          "type": "bytes4"
        }
      ],
      "name": "supportsInterface",
      "outputs": [
        {
          "internalType": "bool",
          "name": "",
          "type": "bool"
        }
      ],
      "stateMutability": "view",
      "type": "function"
    },
    {
      "inputs": [],
      "name": "symbol",
      "outputs": [
        {
          "internalType": "string",
          "name": "",
          "type": "string"
        }
      ],
      "stateMutability": "view",
      "type": "function"
    },
    {
      "inputs": [
        {
          "internalType": "uint256",
          "name": "tokenId",
          "type": "uint256"
        }
      ],
      "name": "tokenURI",
      "outputs": [
        {
          "internalType": "string",
          "name": "",
          "type": "string"
        }
      ],
      "stateMutability": "view",
      "type": "function"
    },
    {
      "inputs": [],
      "name": "totalMintSupply",
      "outputs": [
        {
          "internalType": "uint256",
          "name": "",
          "type": "uint256"
        }
      ],
      "stateMutability": "view",
      "type": "function"
    },
    {
      "inputs": [
        {
          "internalType": "address",
          "name": "from",
          "type": "address"
        },
        {
          "internalType": "address",
          "name": "to",
          "type": "address"
        },
        {
          "internalType": "uint256",
          "name": "tokenId",
          "type": "uint256"
        }
      ],
      "name": "transferFrom",
      "outputs": [],
      "stateMutability": "nonpayable",
      "type": "function"
    }
  ],
  "bytecode": "0x608060405234801561001057600080fd5b506040516122a53803806122a583398101604081905261002f916101a4565b6040518060400160405280600c81526020016b4361742050726f706572747960a01b815250604051806040016040528060078152602001661adbdadbd0d05560ca1b81525081600090816100839190610276565b5060016100908282610276565b506100a0915060009050836100d8565b506100cb7f9f2df0fed2c77648de5860a4cc508cd0818c85b8b8a1ab4ceeef8d981c8956a6826100d8565b5050600060095550610334565b60008281526007602090815260408083206001600160a01b038516845290915281205460ff1661017e5760008381526007602090815260408083206001600160a01b03861684529091529020805460ff191660011790556101363390565b6001600160a01b0316826001600160a01b0316847f2f8788117e7eff1d82e926ec794901d17c78024a50270940304540a733656f0d60405160405180910390a4506001610182565b5060005b92915050565b80516001600160a01b038116811461019f57600080fd5b919050565b600080604083850312156101b757600080fd5b6101c083610188565b91506101ce60208401610188565b90509250929050565b634e487b7160e01b600052604160045260246000fd5b600181811c9082168061020157607f821691505b60208210810361022157634e487b7160e01b600052602260045260246000fd5b50919050565b601f82111561027157806000526020600020601f840160051c8101602085101561024e5750805b601f840160051c820191505b8181101561026e576000815560010161025a565b50505b505050565b81516001600160401b0381111561028f5761028f6101d7565b6102a38161029d84546101ed565b84610227565b6020601f8211600181146102d757600083156102bf5750848201515b600019600385901b1c1916600184901b17845561026e565b600084815260208120601f198516915b8281101561030757878501518255602094850194600190920191016102e7565b50848210156103255786840151600019600387901b60f8161c191681555b50505050600190811b01905550565b611f62806103436000396000f3fe608060405234801561001057600080fd5b50600436106101cf5760003560e01c806370a0823111610104578063b88d4fde116100a2578063d539139311610071578063d53913931461040a578063d547741f14610431578063e985e9c514610444578063ed1f56c01461048057600080fd5b8063b88d4fde146103ac578063c6df962d146103bf578063c87b56dd146103e4578063d204c45e146103f757600080fd5b806391d14854116100de57806391d148541461035057806395d89b4114610389578063a217fddf14610391578063a22cb4651461039957600080fd5b806370a082311461032b57806371a3da6e1461033e57806385e0832c1461034757600080fd5b8063248a9ca31161017157806342842e0e1161014b57806342842e0e146102d257806342966c68146102e55780634da2b48e146102f85780636352211e1461031857600080fd5b8063248a9ca3146102895780632f2ff15d146102ac57806336568abe146102bf57600080fd5b8063081812fc116101ad578063081812fc14610223578063095ea7b31461024e5780630ad3927e1461026357806323b872dd1461027657600080fd5b8063010a38f5146101d457806301ffc9a7146101eb57806306fdde031461020e575b600080fd5b600b545b6040519081526020015b60405180910390f35b6101fe6101f9366004611871565b610488565b60405190151581526020016101e2565b610216610499565b6040516101e291906118de565b6102366102313660046118f1565b61052b565b6040516001600160a01b0390911681526020016101e2565b61026161025c366004611926565b610554565b005b610261610271366004611a10565b610563565b610261610284366004611ab0565b610607565b6101d86102973660046118f1565b60009081526007602052604090206001015490565b6102616102ba366004611aed565b6106b0565b6102616102cd366004611aed565b6106d5565b6102616102e0366004611ab0565b610726565b6102616102f33660046118f1565b610741565b61030b6103063660046118f1565b6107cb565b6040516101e29190611b19565b6102366103263660046118f1565b61097b565b6101d8610339366004611b85565b610986565b6101d8600b5481565b6101d860095481565b6101fe61035e366004611aed565b60009182526007602090815260408084206001600160a01b0393909316845291905290205460ff1690565b6102166109e7565b6101d8600081565b6102616103a7366004611ba0565b6109f6565b6102616103ba366004611bca565b610a01565b6103d26103cd3660046118f1565b610a19565b6040516101e296959493929190611c46565b6102166103f23660046118f1565b610b65565b610261610405366004611c92565b610b70565b6101d87f9f2df0fed2c77648de5860a4cc508cd0818c85b8b8a1ab4ceeef8d981c8956a681565b61026161043f366004611aed565b610be1565b6101fe610452366004611ce0565b6001600160a01b03918216600090815260056020908152604080832093909416825291909152205460ff1690565b6009546101d8565b600061049382610c06565b92915050565b6060600080546104a890611d0a565b80601f01602080910402602001604051908101604052809291908181526020018280546104d490611d0a565b80156105215780601f106104f657610100808354040283529160200191610521565b820191906000526020600020905b81548152906001019060200180831161050457829003601f168201915b5050505050905090565b600061053682610c44565b506000828152600460205260409020546001600160a01b0316610493565b61055f828233610c7d565b5050565b6040805160c081018252878152602080820188905281830187905260608201869052841515608083015260a0820184905260008a8152600a90915291909120815181906105b09082611d8b565b50602082015160018201556040820151600282015560608201516003820155608082015160048201805460ff191691151591909117905560a082015160058201906105fb9082611d8b565b50505050505050505050565b6001600160a01b03821661063657604051633250574960e11b8152600060048201526024015b60405180910390fd5b6000610643838333610c8a565b9050836001600160a01b0316816001600160a01b0316146106aa576040517f64283d7b0000000000000000000000000000000000000000000000000000000081526001600160a01b038086166004830152602482018490528216604482015260640161062d565b50505050565b6000828152600760205260409020600101546106cb81610d90565b6106aa8383610d9d565b6001600160a01b0381163314610717576040517f6697b23200000000000000000000000000000000000000000000000000000000815260040160405180910390fd5b6107218282610e4b565b505050565b61072183838360405180602001604052806000815250610a01565b61074a81610ed2565b6000600954116107b6576040517f08c379a000000000000000000000000000000000000000000000000000000000815260206004820181905260248201527f6275726e206572726f723a20746f74616c4d696e74537570706c792069732030604482015260640161062d565b60016009546107c59190611e60565b60095550565b6108066040518060c0016040528060608152602001600081526020016000815260200160008152602001600015158152602001606081525090565b6000828152600a6020526040808220815160c0810190925280548290829061082d90611d0a565b80601f016020809104026020016040519081016040528092919081815260200182805461085990611d0a565b80156108a65780601f1061087b576101008083540402835291602001916108a6565b820191906000526020600020905b81548152906001019060200180831161088957829003601f168201915b5050509183525050600182015460208201526002820154604082015260038201546060820152600482015460ff161515608082015260058201805460a0909201916108f090611d0a565b80601f016020809104026020016040519081016040528092919081815260200182805461091c90611d0a565b80156109695780601f1061093e57610100808354040283529160200191610969565b820191906000526020600020905b81548152906001019060200180831161094c57829003601f168201915b50505091909252509195945050505050565b600061049382610c44565b60006001600160a01b0382166109cb576040517f89c62b640000000000000000000000000000000000000000000000000000000081526000600482015260240161062d565b506001600160a01b031660009081526003602052604090205490565b6060600180546104a890611d0a565b61055f338383610ede565b610a0c848484610607565b6106aa3385858585610f96565b600a60205260009081526040902080548190610a3490611d0a565b80601f0160208091040260200160405190810160405280929190818152602001828054610a6090611d0a565b8015610aad5780601f10610a8257610100808354040283529160200191610aad565b820191906000526020600020905b815481529060010190602001808311610a9057829003601f168201915b50505060018401546002850154600386015460048701546005880180549798949793965091945060ff169291610ae290611d0a565b80601f0160208091040260200160405190810160405280929190818152602001828054610b0e90611d0a565b8015610b5b5780601f10610b3057610100808354040283529160200191610b5b565b820191906000526020600020905b815481529060010190602001808311610b3e57829003601f168201915b5050505050905086565b6060610493826110c1565b7f9f2df0fed2c77648de5860a4cc508cd0818c85b8b8a1ab4ceeef8d981c8956a6610b9a81610d90565b6008805460009182610bab83611e73565b919050559050610bbb84826111d2565b610bc581846111ec565b600b819055600954610bd8906001611e8c565b60095550505050565b600082815260076020526040902060010154610bfc81610d90565b6106aa8383610e4b565b60006001600160e01b031982167f7965db0b00000000000000000000000000000000000000000000000000000000148061049357506104938261123c565b6000818152600260205260408120546001600160a01b03168061049357604051637e27328960e01b81526004810184905260240161062d565b610721838383600161127a565b6000828152600260205260408120546001600160a01b0390811690831615610cb757610cb78184866113c5565b6001600160a01b03811615610cf557610cd460008560008061127a565b6001600160a01b038116600090815260036020526040902080546000190190555b6001600160a01b03851615610d24576001600160a01b0385166000908152600360205260409020805460010190555b600084815260026020526040808220805473ffffffffffffffffffffffffffffffffffffffff19166001600160a01b0389811691821790925591518793918516917fddf252ad1be2c89b69c2b068fc378daa952ba7f163c4a11628f55a4df523b3ef91a4949350505050565b610d9a8133611442565b50565b60008281526007602090815260408083206001600160a01b038516845290915281205460ff16610e435760008381526007602090815260408083206001600160a01b03861684529091529020805460ff19166001179055610dfb3390565b6001600160a01b0316826001600160a01b0316847f2f8788117e7eff1d82e926ec794901d17c78024a50270940304540a733656f0d60405160405180910390a4506001610493565b506000610493565b60008281526007602090815260408083206001600160a01b038516845290915281205460ff1615610e435760008381526007602090815260408083206001600160a01b0386168085529252808320805460ff1916905551339286917ff6391f5c32d9c69d2a47ea670b442974b53935d1edc7fd64eb21e047a839171b9190a4506001610493565b61055f60008233610c8a565b6001600160a01b038216610f29576040517f5b08ba180000000000000000000000000000000000000000000000000000000081526001600160a01b038316600482015260240161062d565b6001600160a01b03838116600081815260056020908152604080832094871680845294825291829020805460ff191686151590811790915591519182527f17307eab39ab6107e8899845ad3d59bd9653f200f220920489ca2b5937696c31910160405180910390a3505050565b6001600160a01b0383163b156110ba57604051630a85bd0160e11b81526001600160a01b0384169063150b7a0290610fd8908890889087908790600401611e9f565b6020604051808303816000875af1925050508015611013575060408051601f3d908101601f1916820190925261101091810190611ee0565b60015b61107c573d808015611041576040519150601f19603f3d011682016040523d82523d6000602084013e611046565b606091505b50805160000361107457604051633250574960e11b81526001600160a01b038516600482015260240161062d565b805181602001fd5b6001600160e01b03198116630a85bd0160e11b146110b857604051633250574960e11b81526001600160a01b038516600482015260240161062d565b505b5050505050565b60606110cc82610c44565b50600082815260066020526040812080546110e690611d0a565b80601f016020809104026020016040519081016040528092919081815260200182805461111290611d0a565b801561115f5780601f106111345761010080835404028352916020019161115f565b820191906000526020600020905b81548152906001019060200180831161114257829003601f168201915b50505050509050600061117d60408051602081019091526000815290565b9050805160000361118f575092915050565b8151156111c15780826040516020016111a9929190611efd565b60405160208183030381529060405292505050919050565b6111ca846114b0565b949350505050565b61055f828260405180602001604052806000815250611525565b60008281526006602052604090206112048282611d8b565b506040518281527ff8e1a15aba9398e019f0b49df1a4fde98ee17ae345cb5f6b5e2c27f5033e8ce79060200160405180910390a15050565b60006001600160e01b031982167f4906490600000000000000000000000000000000000000000000000000000000148061049357506104938261153d565b808061128e57506001600160a01b03821615155b1561138857600061129e84610c44565b90506001600160a01b038316158015906112ca5750826001600160a01b0316816001600160a01b031614155b80156112fc57506001600160a01b0380821660009081526005602090815260408083209387168352929052205460ff16155b1561133e576040517fa9fbf51f0000000000000000000000000000000000000000000000000000000081526001600160a01b038416600482015260240161062d565b81156113865783856001600160a01b0316826001600160a01b03167f8c5be1e5ebec7d5bd14f71427d1e84f3dd0314c0f7b2291e5b200ac8c7c3b92560405160405180910390a45b505b50506000908152600460205260409020805473ffffffffffffffffffffffffffffffffffffffff19166001600160a01b0392909216919091179055565b6113d08383836115d8565b610721576001600160a01b0383166113fe57604051637e27328960e01b81526004810182905260240161062d565b6040517f177e802f0000000000000000000000000000000000000000000000000000000081526001600160a01b03831660048201526024810182905260440161062d565b60008281526007602090815260408083206001600160a01b038516845290915290205460ff1661055f576040517fe2517d3f0000000000000000000000000000000000000000000000000000000081526001600160a01b03821660048201526024810183905260440161062d565b60606114bb82610c44565b5060006114d360408051602081019091526000815290565b905060008151116114f3576040518060200160405280600081525061151e565b806114fd8461165b565b60405160200161150e929190611efd565b6040516020818303038152906040525b9392505050565b61152f83836116fb565b610721336000858585610f96565b60006001600160e01b031982167f80ac58cd0000000000000000000000000000000000000000000000000000000014806115a057506001600160e01b031982167f5b5e139f00000000000000000000000000000000000000000000000000000000145b8061049357507f01ffc9a7000000000000000000000000000000000000000000000000000000006001600160e01b0319831614610493565b60006001600160a01b038316158015906111ca5750826001600160a01b0316846001600160a01b0316148061163257506001600160a01b0380851660009081526005602090815260408083209387168352929052205460ff165b806111ca5750506000908152600460205260409020546001600160a01b03908116911614919050565b6060600061166883611779565b600101905060008167ffffffffffffffff81111561168857611688611950565b6040519080825280601f01601f1916602001820160405280156116b2576020820181803683370190505b5090508181016020015b600019017f3031323334353637383961626364656600000000000000000000000000000000600a86061a8153600a85049450846116bc57509392505050565b6001600160a01b03821661172557604051633250574960e11b81526000600482015260240161062d565b600061173383836000610c8a565b90506001600160a01b03811615610721576040517f73c6ac6e0000000000000000000000000000000000000000000000000000000081526000600482015260240161062d565b6000807a184f03e93ff9f4daa797ed6e38ed64bf6a1f01000000000000000083106117c2577a184f03e93ff9f4daa797ed6e38ed64bf6a1f010000000000000000830492506040015b6d04ee2d6d415b85acef810000000083106117ee576d04ee2d6d415b85acef8100000000830492506020015b662386f26fc10000831061180c57662386f26fc10000830492506010015b6305f5e1008310611824576305f5e100830492506008015b612710831061183857612710830492506004015b6064831061184a576064830492506002015b600a83106104935760010192915050565b6001600160e01b031981168114610d9a57600080fd5b60006020828403121561188357600080fd5b813561151e8161185b565b60005b838110156118a9578181015183820152602001611891565b50506000910152565b600081518084526118ca81602086016020860161188e565b601f01601f19169290920160200192915050565b60208152600061151e60208301846118b2565b60006020828403121561190357600080fd5b5035919050565b80356001600160a01b038116811461192157600080fd5b919050565b6000806040838503121561193957600080fd5b6119428361190a565b946020939093013593505050565b634e487b7160e01b600052604160045260246000fd5b60008067ffffffffffffffff84111561198157611981611950565b50604051601f19601f85018116603f0116810181811067ffffffffffffffff821117156119b0576119b0611950565b6040528381529050808284018510156119c857600080fd5b83836020830137600060208583010152509392505050565b600082601f8301126119f157600080fd5b61151e83833560208501611966565b8035801515811461192157600080fd5b600080600080600080600060e0888a031215611a2b57600080fd5b87359650602088013567ffffffffffffffff811115611a4957600080fd5b611a558a828b016119e0565b965050604088013594506060880135935060808801359250611a7960a08901611a00565b915060c088013567ffffffffffffffff811115611a9557600080fd5b611aa18a828b016119e0565b91505092959891949750929550565b600080600060608486031215611ac557600080fd5b611ace8461190a565b9250611adc6020850161190a565b929592945050506040919091013590565b60008060408385031215611b0057600080fd5b82359150611b106020840161190a565b90509250929050565b602081526000825160c06020840152611b3560e08401826118b2565b90506020840151604084015260408401516060840152606084015160808401526080840151151560a084015260a0840151601f198483030160c0850152611b7c82826118b2565b95945050505050565b600060208284031215611b9757600080fd5b61151e8261190a565b60008060408385031215611bb357600080fd5b611bbc8361190a565b9150611b1060208401611a00565b60008060008060808587031215611be057600080fd5b611be98561190a565b9350611bf76020860161190a565b925060408501359150606085013567ffffffffffffffff811115611c1a57600080fd5b8501601f81018713611c2b57600080fd5b611c3a87823560208401611966565b91505092959194509250565b60c081526000611c5960c08301896118b2565b876020840152866040840152856060840152841515608084015282810360a0840152611c8581856118b2565b9998505050505050505050565b60008060408385031215611ca557600080fd5b611cae8361190a565b9150602083013567ffffffffffffffff811115611cca57600080fd5b611cd6858286016119e0565b9150509250929050565b60008060408385031215611cf357600080fd5b611cfc8361190a565b9150611b106020840161190a565b600181811c90821680611d1e57607f821691505b602082108103611d3e57634e487b7160e01b600052602260045260246000fd5b50919050565b601f82111561072157806000526020600020601f840160051c81016020851015611d6b5750805b601f840160051c820191505b818110156110ba5760008155600101611d77565b815167ffffffffffffffff811115611da557611da5611950565b611db981611db38454611d0a565b84611d44565b6020601f821160018114611ded5760008315611dd55750848201515b600019600385901b1c1916600184901b1784556110ba565b600084815260208120601f198516915b82811015611e1d5787850151825560209485019460019092019101611dfd565b5084821015611e3b5786840151600019600387901b60f8161c191681555b50505050600190811b01905550565b634e487b7160e01b600052601160045260246000fd5b8181038181111561049357610493611e4a565b600060018201611e8557611e85611e4a565b5060010190565b8082018082111561049357610493611e4a565b6001600160a01b03851681526001600160a01b0384166020820152826040820152608060608201526000611ed660808301846118b2565b9695505050505050565b600060208284031215611ef257600080fd5b815161151e8161185b565b60008351611f0f81846020880161188e565b835190830190611f2381836020880161188e565b0194935050505056fea26469706673582212205836b133104f4702b37fc03606019af903fbd5b90fc24f5af775ef3c04804a5264736f6c634300081b0033",
  "linkReferences": {},
  "deployedLinkReferences": {}
}