{
  "_format": "hh-sol-artifact-1",
  "contractName": "Box",
  "sourceName": "contracts/kokoDao/Box.sol",
  "abi": [
    {
      "inputs": [
        {
          "internalType": "address",
          "name": "initialOwner",
          "type": "address"
        }
      ],
      "stateMutability": "nonpayable",
      "type": "constructor"
    },
    {
      "inputs": [
        {
          "internalType": "address",
          "name": "owner",
          "type": "address"
        }
      ],
      "name": "OwnableInvalidOwner",
      "type": "error"
    },
    {
      "inputs": [
        {
          "internalType": "address",
          "name": "account",
          "type": "address"
        }
      ],
      "name": "OwnableUnauthorizedAccount",
      "type": "error"
    },
    {
      "anonymous": false,
      "inputs": [
        {
          "indexed": true,
          "internalType": "address",
          "name": "previousOwner",
          "type": "address"
        },
        {
          "indexed": true,
          "internalType": "address",
          "name": "newOwner",
          "type": "address"
        }
      ],
      "name": "OwnershipTransferred",
      "type": "event"
    },
    {
      "anonymous": false,
      "inputs": [
        {
          "indexed": false,
          "internalType": "uint256",
          "name": "newValue",
          "type": "uint256"
        }
      ],
      "name": "ValueChanged",
      "type": "event"
    },
    {
      "inputs": [],
      "name": "getContractName",
      "outputs": [
        {
          "internalType": "string",
          "name": "",
          "type": "string"
        }
      ],
      "stateMutability": "pure",
      "type": "function"
    },
    {
      "inputs": [],
      "name": "owner",
      "outputs": [
        {
          "internalType": "address",
          "name": "",
          "type": "address"
        }
      ],
      "stateMutability": "view",
      "type": "function"
    },
    {
      "inputs": [],
      "name": "renounceOwnership",
      "outputs": [],
      "stateMutability": "nonpayable",
      "type": "function"
    },
    {
      "inputs": [],
      "name": "retrieve",
      "outputs": [
        {
          "internalType": "uint256",
          "name": "",
          "type": "uint256"
        }
      ],
      "stateMutability": "view",
      "type": "function"
    },
    {
      "inputs": [
        {
          "internalType": "uint256",
          "name": "newValue",
          "type": "uint256"
        }
      ],
      "name": "store",
      "outputs": [],
      "stateMutability": "nonpayable",
      "type": "function"
    },
    {
      "inputs": [
        {
          "internalType": "address",
          "name": "newOwner",
          "type": "address"
        }
      ],
      "name": "transferOwnership",
      "outputs": [],
      "stateMutability": "nonpayable",
      "type": "function"
    },
    {
      "inputs": [
        {
          "internalType": "uint256",
          "name": "num",
          "type": "uint256"
        }
      ],
      "name": "transferTest",
      "outputs": [
        {
          "internalType": "uint256",
          "name": "",
          "type": "uint256"
        }
      ],
      "stateMutability": "pure",
      "type": "function"
    }
  ],
  "bytecode": "0x608060405234801561001057600080fd5b5060405161084138038061084183398101604081905261002f91610164565b806001600160a01b03811661005e57604051631e4fbdf760e01b81526000600482015260240160405180910390fd5b6100678161006e565b50506101f4565b61009060405180606001604052806026815260200161081b60269139826100e0565b600080546001600160a01b038381166001600160a01b0319831681178455604051919092169283917f8be0079c531659141344cd1fd0a4f28419497f9722a3daafe3b4186f6b6457e09190a35050565b61012982826040516024016100f6929190610194565b60408051601f198184030181529190526020810180516001600160e01b0390811663319af33360e01b1790915261012d16565b5050565b6101408161014360201b6102261760201c565b50565b60006a636f6e736f6c652e6c6f679050600080835160208501845afa505050565b60006020828403121561017657600080fd5b81516001600160a01b038116811461018d57600080fd5b9392505050565b604081526000835180604084015260005b818110156101c257602081870181015160608684010152016101a5565b50600060608285018101919091526001600160a01b03949094166020840152601f01601f191690910190910192915050565b610618806102036000396000f3fe608060405234801561001057600080fd5b506004361061007d5760003560e01c8063828b74d61161005b578063828b74d6146100b65780638da5cb5b146100c9578063f2fde38b146100e4578063f5f5ba72146100f757600080fd5b80632e64cec1146100825780636057361d14610099578063715018a6146100ae575b600080fd5b6001545b6040519081526020015b60405180910390f35b6100ac6100a736600461049e565b610136565b005b6100ac610171565b6100866100c436600461049e565b610185565b6000546040516001600160a01b039091168152602001610090565b6100ac6100f23660046104b7565b6101ca565b604080518082018252600381527f426f78000000000000000000000000000000000000000000000000000000000060208201529051610090919061052d565b60018190556040518181527f93fe6d397c74fdf1402a8b72e47b68512f0510d7b98a4bc4cbdf6ac7108b3c599060200160405180910390a150565b610179610247565b610183600061031d565b565b60006101c66040518060400160405280601b81526020017f426f782d7472616e736665725465737428292d6e657756616c75650000000000815250836103a7565b5090565b6101d2610247565b6001600160a01b03811661021a576040517f1e4fbdf7000000000000000000000000000000000000000000000000000000008152600060048201526024015b60405180910390fd5b6102238161031d565b50565b60006a636f6e736f6c652e6c6f679050600080835160208501845afa505050565b6102976040518060400160405280600881526020017f6f776e657228293a0000000000000000000000000000000000000000000000008152506102926000546001600160a01b031690565b61041e565b6102d76040518060400160405280600d81526020017f5f6d736753656e64657228293a000000000000000000000000000000000000008152506102923390565b6000546001600160a01b03163314610183576040517f118cdaa7000000000000000000000000000000000000000000000000000000008152336004820152602401610211565b61033f6040518060600160405280602681526020016105bd602691398261041e565b600080546001600160a01b038381167fffffffffffffffffffffffff0000000000000000000000000000000000000000831681178455604051919092169283917f8be0079c531659141344cd1fd0a4f28419497f9722a3daafe3b4186f6b6457e09190a35050565b61041a82826040516024016103bd929190610540565b60408051601f198184030181529190526020810180517bffffffffffffffffffffffffffffffffffffffffffffffffffffffff167fb60e72cc0000000000000000000000000000000000000000000000000000000017905261048d565b5050565b61041a8282604051602401610434929190610562565b60408051601f198184030181529190526020810180517bffffffffffffffffffffffffffffffffffffffffffffffffffffffff167f319af333000000000000000000000000000000000000000000000000000000001790525b61022381610226565b61018361058d565b6000602082840312156104b057600080fd5b5035919050565b6000602082840312156104c957600080fd5b81356001600160a01b03811681146104e057600080fd5b9392505050565b6000815180845260005b8181101561050d576020818501810151868301820152016104f1565b506000602082860101526020601f19601f83011685010191505092915050565b6020815260006104e060208301846104e7565b60408152600061055360408301856104e7565b90508260208301529392505050565b60408152600061057560408301856104e7565b90506001600160a01b03831660208301529392505050565b7f4e487b7100000000000000000000000000000000000000000000000000000000600052605160045260246000fdfe4f776e61626c652d5f7472616e736665724f776e65727368697028292d6e65774f776e65723aa26469706673582212204aaa12849d8804e31db76f3e10caae7a366239c0c210cf2e91f633cef63564dd64736f6c634300081b00334f776e61626c652d5f7472616e736665724f776e65727368697028292d6e65774f776e65723a",
  "linkReferences": {},
  "deployedLinkReferences": {}
}